:020000040800F2
:10000000E8300020ED3C0008D5390008D739000859
:10001000D9390008DB390008DD390008000000008C
:10002000000000000000000000000000DF390008B0
:10003000E139000800000000E3390008E539000854
:10004000E13D0008E53D0008E93D0008ED3D000800
:10005000F13D0008F53D0008F93D0008FD3D0008B0
:10006000013E0008053E0008093E0008E739000887
:100070005D3A00080D3E0008113E0008153E0008DC
:10008000193E00081D3E0008213E0008253E0008DC
:10009000293E00082D3E0008313E0008353E00088C
:1000A000393E00083D3E0008413E0008453E00083C
:1000B000E9390008FD390008F3390008493E000815
:1000C0004D3E0008513E0008553E0008593E0008CC
:1000D0005D3E0008613E0008653E0008073A0008E2
:1000E000693E00086D3E0008713E0008753E00083C
:1000F000793E00087D3E000800000000000000007E
:100100000000000000000000813E0008853E00085D
:100110000000000000000000893E00088D3E00083D
:10012000913E0008953E0008993E00089D3E00085B
:10013000A13E0008A53E0008A93E0008AD3E00080B
:10014000B13E0008000000000000000000000000B8
:10015000000000000000000000000000000000009F
:100160000000000000000000B53E0008B93E000895
:10017000BD3E000800000000C13E00080000000075
:1001800000000000C53E0008BFF34F8FDFF8C01A23
:100190000A6802F4E062DFF8BC0A02430A60BFF3B7
:1001A0004F8F00BFFDE700002DE9F0412DED068BDC
:1001B000DFF8A42ADFF8A44ADFF8A41AC88840F6BA
:1001C000980398421EDA2068400518D41078034638
:1001D000042B01DC401C1070107804281EDDDFF8B1
:1001E000840A0078042819DD0420DFF87C1A4860AE
:1001F00000F00CFEBDEC068BBDE8F041C4E700202A
:1002000010700BE01078002801D0401E107010789C
:10021000002803D1206840F400602060DFF84C5AC9
:10022000DFF84C2AB1F90030B1F90C00C318A3F57E
:10023000805000B200EE100AB8EEC00AD2ED000AFB
:1002400030EE600AD5ED000A20EE200AB1F9023046
:10025000B1F90A00C318A3F5805000B200EE900A6D
:10026000F8EEE00A92ED011A70EEC10A95ED011A5E
:1002700060EE810AB1F90430B1F90800C318A3F5A2
:10028000805000B201EE100AB8EEC11AD2ED021A87
:1002900031EE611AD5ED021A21EE211ADFF8D409E8
:1002A000006800B201EE900AF8EEE11A95ED032A1B
:1002B00061EE821A92ED032A71EEC23ADFF8B809B4
:1002C000006800B201EE900AF8EEE11A95ED042AFA
:1002D00061EE821A92ED042A31EEC24ADFF89C19CF
:1002E000C86D00B201EE900AF8EEE11A95ED052A0C
:1002F00061EE821A92ED052A71EEC24ADFF880099A
:10030000026842F480020260086840F4004008601D
:10031000DFF8706996ED035AD6ED015ADFEDCC1A7D
:100320009FEDCC2ADFEDCC2A9FEDCC3A96ED026A08
:1003300036EE236A26EE038A05EEA28A05EE028ACD
:1003400096ED046A06EE618A86ED045A86ED048A0B
:10035000C6ED025AC6ED013AD6ED073A96ED055ABA
:10036000D6ED065A75EE845A65EE838A45EE228AEA
:1003700043EE828AD6ED085A45EEE18AC6ED083A88
:10038000C6ED088A86ED065A86ED054AD6ED0B3A8B
:1003900096ED094A96ED0A5A35EE245A25EE039A4F
:1003A00004EE229A03EE829A96ED0C5A05EE619ABB
:1003B000C6ED0C3A86ED0C9A86ED0A4AC6ED094A5E
:1003C000D6ED0F3A96ED0D4AD6ED0E4A74EE804A00
:1003D00064EE839A44EE229A43EE829AD6ED104A56
:1003E00044EEE19AC6ED103AC6ED109A86ED0E4A3B
:1003F00086ED0D0A96ED130AD6ED113A96ED124AE6
:1004000034EE204A24EE03AA03EEA2AA00EE02AACA
:1004100096ED144A04EE61AA86ED140A86ED14AA3C
:10042000C6ED123AC6ED110A96ED170AD6ED150A79
:10043000D6ED163A73EE813A63EE83AA40EEA2AA95
:1004400040EE02AA96ED182A42EE61AA86ED180A3D
:10045000C6ED18AAC6ED160A86ED151A3088401C9E
:100460003080DFF82478388840F67F4188420CD10C
:10047000DFF818084188DFF81828A2F8541001881E
:100480004180DFF810080160B5E0B0F5486F40F03A
:10049000B280DFF804080068DFF800180860002068
:1004A0003880206840F007002060DFF8F407DFF8AC
:1004B000E01702680A6042684A6082688A60C2681F
:1004C000CA6002690A6142694A6182698A61C269D5
:1004D000CA61026A0A62426A4A62826A8A62C26ABD
:1004E000CA62026B0A63426B4A63826B8A63C26BA5
:1004F000CA63026C0A64426C4A64826C8A64C26C8D
:10050000CA64026D0A6500210A4602E040F8212013
:10051000491C1429FADD66E001EB820051F8223013
:10052000C0F8F03AD0F8C830C0F8B83BD0F89031F5
:10053000C0F8803CD0F85832C0F8483DD0F820339D
:10054000C0F8103ED0F8E833C0F8D83ED0F8B03448
:10055000C0F8A03F41F26803D0F878C540F803C066
:1005600041F23013D0F840C640F803C041F2F8130E
:10057000D0F808C740F803C000F59653D0F8D0C7AC
:10058000C3F800C041F28833D0F898C840F803C0DF
:1005900041F25043D0F860C940F803C041F218530B
:1005A000D0F828CA40F803C0002341F82230194689
:1005B000C0F8C810C0F89011C0F85812C0F8201345
:1005C000C0F8E813C0F8B014C0F87815C0F84016A9
:1005D000C0F80817C0F8D017C0F89818C0F860190C
:1005E000C0F8281A521CDFF8BC16322A94DB01F539
:1005F000AF5000210160DFF87086B8F800000004F9
:1006000015D5706EB16E81420DD10020B06670803C
:10061000DFF89406028CD2B2C18BC9B2808BC0B213
:1006200000F085FD05E004D2491CB16601E0002020
:10063000B066DFF8780600780146022923DB0FD187
:10064000BDEECA0A10EE100A00B200F043FA1AE03A
:10065000A0BF56BE3706ED3ECD2CBF3ECC2C3F3E54
:10066000032807D1BDEEEA0A10EE100A00B200F02E
:1006700031FA08E0042806D1BDEEE90A10EE100AAE
:1006800000B200F027FADFF8181691ED0F0A30EEED
:10069000290A81ED0F0A91ED100A30EE0A0A81ED68
:1006A000100A91ED110A30EE2A0A81ED110A91ED3E
:1006B000120A30EE080A81ED120A91ED130A30EEAB
:1006C000280A81ED130A91ED140A30EE090A81ED32
:1006D000140A91ED030A08EE080A81ED030A91ED70
:1006E000040A08EEA80A81ED040A91ED050A09EE54
:1006F000090A81ED050A91ED000A09EEA90A81EDCA
:10070000000A91ED010A0AEE0A0A81ED010A91ED53
:10071000020A0AEEAA0A81ED020A39EECA0AD1EDEE
:100720000C0A40EE000AC1ED0C0A3AEEE90AD1EDDE
:100730000E0A40EE000AC1ED0E0A3AEECA0AD1EDE9
:100740000D0A40EE000AC1ED0D0A2268100702D51D
:10075000B1EE480A01E0B0EE480ADFF84C05008A25
:10076000002806D1D00602D530EE680A01E030EE4E
:10077000280A900602D530EE490A01E030EE090A57
:10078000D1ED0B0A40EE000AC1ED0B0ADFF820059F
:10079000D5ED090A90ED001A60EE810AC0ED009ACD
:1007A00079EEA00A95ED061A60EE810ADFF80405DD
:1007B00095ED0A1AD0ED001A21EE211A80ED00AA5B
:1007C0003AEE011AD5ED071A21EE211ADFF8E804F6
:1007D000D5ED0B1A90ED002A61EE821AC0ED00AA49
:1007E0007AEEA11A95ED082A61EE821A91ED062A99
:1007F00000EE882A81ED062A91ED072A01EE282ACB
:1008000081ED072A91ED082A01EE892A81ED082A57
:1008100091ED092A01EE082A81ED092A91ED0A2AB3
:1008200001EE092A81ED0A2ADFF8780400F5AF51BC
:100830004C88DFF8882402F580730D8803EB85056A
:1008400095ED002A00EB8405D5ED002A40EE822AC2
:1008500000EB8404C4ED002A4C8800F1C805B1F80F
:1008600000C002EB8C0C9CED002A05EB840CDCED47
:10087000002A40EE822A05EB8404C4ED002A4C884D
:1008800000F5C875B1F800C003EB8C0CDCED000A74
:1008900005EB840C9CED002A01EE202A05EB840474
:1008A00084ED002A4C8800F51675B1F800C002EB03
:1008B0008C0CDCED000A05EB840C9CED002A01EEAB
:1008C000202A05EB840484ED002A4C8800F5487545
:1008D000B1F800C003EB8C0CDCED000A05EB840CD6
:1008E0009CED001A01EEA01A05EB840484ED001AB9
:1008F0004C8800F57A75B1F800C002EB8C0CDCED89
:10090000000A05EB840C9CED001A01EEA01A05EB21
:10091000840484ED001A4C8800F59665B1F800C097
:1009200003EB8C0CDCED000A05EB840C9CED001A4B
:1009300008EE201A05EB840484ED001A4C8800F5BB
:10094000AF65B1F800C002EB8C0CDCED000A05EBE2
:10095000840C9CED001A08EE201A05EB840484ED4B
:10096000001A4C8800F5C865B1F800C003EB8C0C88
:10097000DCED000A05EB840C9CED001A08EEA01AD1
:1009800005EB840484ED001A4C8800F5E165B1F8AC
:1009900000C002EB8C0CDCED000A05EB840C9CED36
:1009A000001A08EEA01A05EB840484ED001A4C88A6
:1009B00000F5FA65B1F800C003EB8C0CDCED000A21
:1009C00005EB840C9CED001A09EE201A05EB84045B
:1009D00084ED001A4C8800F69805B1F800C002EBCF
:1009E0008C0CDCED000A05EB840C9CED001A09EE82
:1009F000201A05EB840484ED001A4C8800F5166576
:100A0000B1F800C003EB8C03D3ED000A05EB8403BF
:100A100093ED001A00EE201A83ED001A4B8800F6C1
:100A200028200C8802EB8402D2ED000A00EB83023E
:100A300092ED001A00EE201A00EB830080ED001A00
:100A40000888401C088080B2402804D1002008801B
:100A50004888401C48803888401C3880800701D571
:100A600000F096FC96490A6842F2100002421FD03C
:100A70009448B0F90000944B1B685B0606D4738859
:100A8000834203D0C2F3403000280ED04FF4004020
:100A9000A8F814004FF48050C8F804000A688B4886
:100AA00002400A600020708002E07088401C708064
:100AB00087480178491C0170C9B2402906DB002132
:100AC0000170BDEC068BBDE8F04152E0BDEC068B39
:100AD000BDE8F081F0B47F4A10807F487F490B6801
:100AE0007F4CA34209D300237E4C23700B607E4CC5
:100AF0002360037803F0FD030370B2F9002016466B
:100B000003787A4C9D0720D50D68604F7F88ED19DA
:100B10000D6027887F1C27805A2E26DB744EB6F97D
:100B200000605A2E21DA6F4E37787F1C3770FFB283
:100B3000322F1AD143F0010303700020307020805F
:100B400069480560002008600FE000250D60294617
:100B5000644D297021805A2E07DD6549B1F90010D6
:100B60005A2902DA43F00203037061480280F0BCA4
:100B700070476048002101805F490A88D20601D48D
:100B8000012202800A88120703D4028842F002027E
:100B900002800988490703D4018841F004010180DB
:100BA00000885649002802D00A8890420FD00022BF
:100BB000534B1A80534B1A80534B1A8008801046AF
:100BC00052490880524908805249088070474C4970
:100BD000088800281FD1012008804B484D4909880A
:100BE000282902DB1E2101800FE0494909881429C8
:100BF00002DB0F21018008E0444909880A2902DB51
:100C00000521018001E0012101803E48018841F079
:100C1000020101807047401C088080B20B2816DD5D
:100C200000200880394801880A460A2A01DC491C4C
:100C30000180374801880A46142A01DC491C0180DA
:100C4000344801880A46282A01DC491C0180704783
:100C50000CED00E00400FA05E22000207000002006
:100C60001C20002006000020140000484000002046
:100C70004C20002060680140606401400460014035
:100C800008240140E41C0020C4200020340000207F
:100C9000D81E00202C000040A4200020A820002006
:100CA000301F0020780000200C00002002000020EF
:100CB000B4200020B8200020BC2000200C35000803
:100CC0008C200020DE2000201C480040EFDFFFFFCA
:100CD000E3200020DA20002001000020B0200020C6
:100CE000012D3101E520002074000020EA1F0020C2
:100CF000D82000203C00002010040048CA2000201A
:100D0000CC200020CE200020D0200020D2200020A7
:100D1000D4200020D620002030B402464FF6FF70C9
:100D2000002400E0641C23460D46DBB2AB4215D222
:100D30002346DBB232F81330584000231D46EDB293
:100D4000082DEFDA0546ADB26D08C007284603D579
:100D500080F4204080F001005B1CEFE780B230BCE3
:100D60007047000070B54AF6AA204249086000208A
:100D7000414908704149088000F016FC404C04F1DC
:100D80005C0540480078288000F040F8266840481C
:100D9000016821F4006101602346A02240214FF444
:100DA000D85000F0DBFD04F14003A02220214FF4D5
:100DB000DA5000F0D3FD002004E000210246D2B258
:100DC000A154401C0146C9B26029F6D39FED2E0BF9
:100DD00084ED0C0B84ED140B761C26600020A080A3
:100DE0002F212046FFF798FF68802346A02240214C
:100DF000A08800F0B3FD04F14003A0222021A088C8
:100E0000403080B2BDE8704000F0A8BD70B54AF631
:100E1000AA2018490860002017490870174908805F
:100E2000174C2068401C2060194D2E6846F48066DF
:100E30002E602F212046FFF76FFFA4F85E0026F4F6
:100E400000662E602346A02240214FF4E05000F0BF
:100E500085FD04F14003A02220214FF4E25000F070
:100E60007DFD062000F081FD286820F48060286068
:100E700070BD000000300040E22000203A00002059
:100E8000781E0020E1200020F168E388B5F8E43EF8
:100E900070000020010008D4012200F01F018A40E8
:100EA000DFF8A413400941F8202070474FF090402C
:100EB000DFF898130160002181804FF0705181604C
:100EC000DFF88C13C160002101624162DFF88413F6
:100ED000DFF884230A6000228A808A604FF4A872B7
:100EE000CA6000220A624A62DFF87013DFF87023DA
:100EF0000A6000228A804FF4A8028A600022CA6039
:100F00000A6220224A62DFF85C1300220A608A80AB
:100F10008A602022CA6000220A624A62D2494FF4E3
:100F200070220A6000228A808A60CA600A624A626D
:100F3000CE494FF420420A60C0228A8000228A6093
:100F40004FF4A042CA604FF088420A6200224A620F
:100F50004FF4805181614FF4006181617047C44852
:100F6000C4490161C4494161C4498161C16A41F018
:100F70003101C162016841F018410160C0498160DE
:100F8000C049C16000218160C1604FF46060BE490A
:100F900008607047BD4807214160BD498160BD4977
:100FA000C16040F2A15101607047BB484FF48071AD
:100FB0000160BA498160C160B94901630A21C16217
:100FC0004FF4C0018162B7494160704780B5FFF7B7
:100FD000C6FFFFF76BFFFFF7E8FF00F036F800F001
:100FE00027F800F062F800F048F8FFF7D3FFBDE8FB
:100FF000014077E0AC48C168C90704D445F25551B7
:10100000016002214160C168890705D445F255514C
:10101000016040F6FF7181604CF6CC410160A3484D
:1010200041F6F73141601C21816000210160704769
:101030009F480021016041608160C1609D4901615C
:10104000016841F00101016070474FF080400421C8
:101050000180002181800121818100210182818222
:10106000018381830184018540F6A661C162018804
:1010700041F0010101801C200CE78F480421018010
:1010800000218180012181810021018281820183EF
:10109000818301844CF250310185F021C1620188C5
:1010A00041F0010101801E20F4E684488421018082
:1010B000002181801021818100210182818243F6FB
:1010C0003D518183002101834FF4805101843B21F4
:1010D00001854FF6FF71C162018841F00101018075
:1010E0001D20D7E610B476484FF4824101604021BC
:1010F000416100210162734A4FF4804313604FF451
:1011000080745461116270490B604C6100230B6262
:101110000123436053604B6083681B04FCD49068D8
:101120000004FCD488680004FCD410BC704710B5DF
:10113000664B18245C6104000AD142F21070988159
:101140004320634C20804FF47A50624C206032E0A0
:10115000012C0AD141F28830988126205C4C2080F5
:101160004FF47A505B4C206025E0022C0AD140F607
:10117000C41098811620564C20804FF41650554CC0
:10118000206018E0032C0AD140F2E24098810D2043
:101190004F4C20804FF416504E4C20600BE004283A
:1011A00009D140F2712098810920494C20804FF4E8
:1011B0001650484C20600020474C206018684008BA
:1011C000400018600846022803D14FF4B050186060
:1011D00009E0012803D14FF4A050186003E0002972
:1011E00001D100201860100002D10020586004E0F6
:1011F000012A02D14FF40070586038484FF4004182
:1012000001824FF480510160186840F0806040F026
:101210002C001860586840F40000586080209860E6
:1012200000201862186840F0010018602C482D4911
:10123000816041F2920101602720FFF72BFE0C2014
:10124000BDE8104026E6000000E100E05555556974
:1012500010000024000400480F5405F00008004866
:10126000FF55A901000C0048001000480014004878
:101270000410024001007E00010200070700441034
:1012800001520F07FFCBE6760070004008000240D5
:101290004C2401401C20002004240140B66DDB36A4
:1012A0006AB1C61605711E0000300040042004E03B
:1012B00000580040895E8010000800400004004093
:1012C00000600140006401400068014000480040A7
:1012D000DE200020481D00204C1D00201800004882
:1012E0001C0002402848004010B40023DFF89C0096
:1012F00000EB410000F1140100E05B1C1C46A4B2AD
:10130000105D0028F9D1052C24DB1078202806D0A8
:101310000B880FF2EF14205C43EA00230B80507817
:10132000202805D00B880FF2DB14205C03430B80D0
:10133000891E921C0EE0DFF8F04104EB400030F80B
:10134000600C03430B8003E00B882028F3D10B8053
:10135000891E521C10780028F6D110BC704780B549
:1013600000200246094B02E023F81120401C0146F0
:10137000C9B21029F8DB0FF2C81203210020FFF7D1
:10138000B3FF01206749088001BD0000EC1F002069
:1013900070B464490A88012A13D1002210000200A7
:1013A00092B2182A0BDA5E4A03009BB232F813207D
:1013B0005E4B0400A4B223F81420401CEFE7002287
:1013C0000A805A490A8E521C0A860A8E052A01D1C1
:1013D00000220A860A8BB2F57C4F05D14A8BB2F502
:1013E0007C4F01D1022210000A8E31F812309BB2DC
:1013F000DB430022100080B2102812DAD80703D590
:1014000001204B4C206002E001204A4C2080022049
:10141000484C20809BB25B080220454C2060521C47
:10142000E8E7088E01EB40004489A4B2E4430020C1
:10143000020092B2102A12DAE20703D501223C4BD5
:101440001A6002E001223B4B1A800222394B1A80BB
:10145000A4B264080222364B1A60401CE8E70A8EE8
:1014600001EB4202938A9BB2DB430022100080B260
:10147000102812DAD80703D501202D4C206002E095
:1014800001202C4C208002202A4C20809BB25B083B
:101490000220274C2060521CE8E727484FF4807454
:1014A0000460802505604025056020250560102525
:1014B0000560204D0820288008201D4E3060088ED1
:1014C000002802D11D48048017E0088E012803D1AE
:1014D00080201A49088010E0088E022803D140209D
:1014E0001649088009E0088E032803D120201349FB
:1014F000088002E01020114908800420288070BC78
:10150000704700200246064B02E023F81120401CE1
:101510000146C9B21029F8DB04200549086070476C
:10152000EC1F0020E4200020283B0008B81F00200A
:1015300018000048280000481808004828080048FB
:1015400052455800EE3E9C7A9E8EEE6E60F0001C76
:10155000002AFCCEE60AB61E7C00000076000000E1
:1015600080B500F021F8814BA022022141F61050F5
:1015700000F02EF97E4BA02202214FF4E85000F03B
:1015800027F97C4BA02260214FF4D85000F020F9BD
:101590007948028CD2B2C18BC9B2808BC0B2BDE88F
:1015A0000840FFF7C4BD000038B52DED028B72482E
:1015B000018900EE101AB8EE400A704981ED010A67
:1015C0008289012A05D1DFED6F0A20EE200A81ED24
:1015D000010A4289022A08D191ED010ADFED6A0A67
:1015E00080EE200A81ED010A09E0012A07D191ED80
:1015F000010AF2EE040A80EE200A81ED010AC28996
:1016000000EE102AF8EE400AC1ED030A91ED010A3E
:10161000C0EE200A5A4AC2ED000A028801EE102AE2
:10162000B8EE411A81ED001A8288012A05D1DFED5A
:10163000551A21EE211A81ED001A4288022A08D19A
:1016400091ED001ADFED501A81EE211A81ED001A9A
:1016500009E0012A07D191ED001AF2EE041A81EE99
:10166000211A81ED001AC08801EE100AB8EE411A65
:1016700081ED021A91ED008A88EE011A434880ED4F
:10168000001A60EE810A4248C0ED000A10EE100A0E
:1016900000F098F904460D469FED3E0B00F0B6F9B8
:1016A00051EC100B22462B4600F032FA04460D4650
:1016B00018EE100A00F086F922462B4600F028FAB0
:1016C00000F0F8FA00EE100A3448DFED350AB4EE07
:1016D000600AF1EE10FA02DB032101700BE0DFED8E
:1016E000310AB4EE600AF1EE10FA02DB0221017059
:1016F00001E001210170007803281CD8DFE800F028
:10170000020910162C486FF00802274BC0E900238D
:1017100011E029486FF00802244BC0E900230AE0D9
:101720002548234A234BC0E9002304E02248234AEA
:10173000254BC0E90023BDEC028B31BD0E48008A69
:10174000012808D000201F4A32280DDA1C49095C04
:101750001154401CF8E700201A4A03E01B49095CB9
:101760001154401C3228F9DB7047000008000020AB
:10177000C8200020181E00200C0000207820002027
:101780009820002000007A440000C8429C200020DD
:10179000A02000200000000000000840E120002000
:1017A00021BCBE4C0150C3477F842E4164CDCD4146
:1017B000F7FFFFA1941A6D4290200020F8FF332616
:1017C000FC3C0008841F0020F56B0C43DC3D000846
:1017D00030B4614C256845F001052560626062689F
:1017E00022F480626260626842F408326260626879
:1017F0009204FCD40246120AA262A269D207FCD566
:10180000C0B2A062A069C007FCD5606840F48060E7
:10181000606060680A4640EA02406060606840F4C8
:101820000050606060688004FCD4002007E0A2697A
:101830005207FCD5626A0546ADB25A55401C0246B5
:101840000D4692B2AA42F2D3606840F480406060D4
:10185000002042F21172A169890604D4401C01469D
:1018600089B29142F7DB0020A169090404D5401C2C
:10187000014689B29142F7DB2068400840002060B1
:1018800030BC704730B4344C256845F00105256004
:101890006260626822F48062626062680D46AD1C1C
:1018A00042EA05426260626842F400526260626825
:1018B0009204FCD40246120AA262A269D207FCD5A5
:1018C000C0B2A062A069C007FCD500200D4607E0A9
:1018D000024692B29A5CA262A269D207FCD5401C71
:1018E000024692B2AA42F3D3606840F4804060603E
:1018F000002042F21172A169890604D4401C0146FD
:1019000089B29142F7DB0020A169090404D5401C8B
:10191000014689B29142F7DB206840084000206010
:1019200030BC70470C4900F100704860086840F016
:10193000010008603020C861486840F400504860E9
:1019400048688004FCD48869C006F3D4086840085D
:1019500040000860704700000058004080B5FFF765
:1019600091FFA020BDE80240DCE740F25931484336
:10197000002809D000BF00BF00BF00BF00BF00BFEC
:1019800000BF00BF401EF3E7704730B4002513E0EE
:1019900050F8042BD30744BFA9F101039A18091F7B
:1019A000042942F8045BFAD213468C0744BF158021
:1019B0009B1CC90748BF1D7050F8041B0029E7D1C4
:1019C00030BC7047C0F3C75181B1FF2906D0C110A8
:1019D000400721F0E04101F16051704741020CBF26
:1019E00040F4E0016FF000410020704700F000413A
:1019F00000020AD0B0FA80FC00FA0CF001F160514C
:101A0000A1EB0C5101EBD0214005704751EC100BBC
:101A100000B500F003F841EC100B00BD40F2FF7C74
:101A20000B0D4DD0634566D230B421EA035141F429
:101A3000801103F2FD3C5FEA5C0C01D300184941C0
:101A4000890041EA907180004FF440140023E202C3
:101A5000D50AB1F5100107D46D081DD2091B641910
:101A600000184941491BF7D56D080AD20919641BB2
:101A700000184941491BEFD56D08F7D301E0520822
:101A800017D0C01861419B1AAC4100184941801A17
:101A9000A941F4D452080AD0C01AA1419B186C4144
:101AA00000184941801AA941E9D45208F4D15B1CBD
:101AB0006C4161084FEA330001EB0C5130BC7047B8
:101AC00050EA0103FBD030B4B1FA81F311B9B0FA96
:101AD00080F41B190B3BB3F120042FBF00FA04F173
:101AE0009940C3F1200420FA04F438BF2143984000
:101AF000D3F101039DE7634514BF50EA410CDEE7D3
:101B000011F5801FDBD8D943AFF300807047000088
:101B1000B0B581EA030C0CF0004C40F2FF7515EAF9
:101B200011541DBF15EA1357AC42AF4239E0E41916
:101B300023EA455343F48013C90241F0004141EACE
:101B4000505EC7021100A7FB020200284FF0000000
:101B5000EEFB01204FF00001E3FB072118BF42F02C
:101B60000102401800214941E3FB0E01A4F5806405
:101B70000F0302D252004041494154F101046CDD8F
:101B8000470872F1004250F1000051EB0451A1F5F9
:101B900080115CBF41EA0C01B0BD4CEA0551002048
:101BA000B0BD05EA1357AC4214BFAF4241E050EA62
:101BB000410E1CBF52EA430E02E061460020B0BD58
:101BC00024423C441BD15FEA070EF6D0090302BF52
:101BD00001460020AEF1140EB1FA81F7AEEB070416
:101BE00001FA07FE0C37C7F1200100FA07F7C840D9
:101BF0004EEA000E23EA455343F48013A2E733F084
:101C00000043B3FA83F704BFB2FA82FE77440B3F76
:101C1000E41BB7F1200E2FBF02FA0EF3BB40C7F151
:101C2000200E22FA0EFE38BF43EA0E03BA40641CAF
:101C300082E750EA410E14BF52EA430E6FF00001F2
:101C40004FF4001717EB430F8ABF194617EB410FEC
:101C5000B5E74CEA05510020B0BDD4F10104B4F160
:101C600020070FDAC4F12007520828BF42F0010212
:101C700010FA07F501FA07F7E1BF2A43E0403843BD
:101C8000E1400FE0352C98DCC7F1200452EA400215
:101C900020FA07F218BF42F0010231FA07F0A14022
:101CA0000A43002172F1004250F1000051EB0C0197
:101CB000B0BD000001F000428B1AA3F16051B1F5F4
:101CC000801F0ADBB1F17F6F1FD242EAC102C1005F
:101CD00071F1004142EB507070470B15C3F10903DD
:101CE000212B10D2890241EA9051800201284941FA
:101CF00041F0004121FA03F0C3F12003994071F152
:101D0000004150417047100070476FF0000013EB26
:101D1000103F5CBF000E42EAC050704770B5FFF73D
:101D200069F9DFF8EC444AF6AA25256072B6FFF798
:101D30004DF9FFF7E6FBFFF712FBDFF8D8644FF42D
:101D4000004030804FF4805030804FF4006030808D
:101D500000F010FBDFF8C00400F15801C088002833
:101D600003D10888401C088002E04888401C488055
:101D700000F016F8DFF8A40440F6A6618186C1865B
:101D8000DFF89C140A6802644A68426489688164C6
:101D900000F00AF90420308062B62560FDE70000FB
:101DA00010B5DFF88404282101700921417000205A
:101DB0001BE0DFF86C1491ED0F0AD1ED100A70EE04
:101DC000C00A014601EE101AB8EE411A60EE810A0F
:101DD0009FED741AC0EE810A30EE800ADFF84C14D1
:101DE00001EB800181ED000A401C2828E1DB002086
:101DF0001BE0DFF82C1491ED120AD1ED130A70EEFE
:101E0000C00A014601EE101AB8EE411A60EE810ACE
:101E10009FED641AC0EE810A30EE800ADFF81014DC
:101E200001EB800181ED000A401C2828E1DB002045
:101E30001BE0DFF8EC1391ED150AD1ED160A70EEF8
:101E4000C00A014601EE101AB8EE411A60EE810A8E
:101E50009FED541AC0EE810A30EE800ADFF8D413E9
:101E600001EB800181ED000A401C2828E1DB002005
:101E70001BE0DFF8AC1391ED100AD1ED110A70EE02
:101E8000C00A014601EE101AB8EE411A60EE810A4E
:101E9000B2EE021AC0EE810A30EE800ADFF88C132F
:101EA00001EB800181ED280A401C0A28E1DB0020BB
:101EB0001BE0DFF86C1391ED130AD1ED140A70EEFC
:101EC000C00A014601EE101AB8EE411A60EE810A0E
:101ED000B2EE021AC0EE810A30EE800ADFF84C132F
:101EE00001EB800181ED5B0A401C0A28E1DB002048
:101EF0001BE0DFF82C1391ED160AD1ED170A70EEF6
:101F0000C00A014601EE101AB8EE411A60EE810ACD
:101F1000B2EE021AC0EE810A30EE800ADFF80C132E
:101F200001EB800181ED8E0A401C0A28E1DB0024D0
:101F30000EE0DFF8F82202EB8401DFF8FC0200EB90
:101F4000840002EB840292ED000A00F0F7FA641CB0
:101F5000322CEEDB00240EE0DFF8D42202EB840109
:101F6000DFF8D80200EB840002EB840292ED000A55
:101F700000F0E4FA641C322CEEDB00240EE0DFF803
:101F8000B42202EB8401DFF8B80200EB840002EB1C
:101F9000840292ED000A00F0D1FA641C322CEEDBD0
:101FA00010BD00000000204270B52DED048B9D4D4A
:101FB00095ED068A994C9A4EB7EE000AB4EE408A27
:101FC000F1EE10FA1CDB96ED060ADFED8F0AB4EE97
:101FD000608AF1EE10FA02DB84ED130A32E0D6EDEE
:101FE000070A70EE600AB5EE001A60EE810AB1EEE3
:101FF000041A00EEC10A00EE880A84ED130A21E0FB
:1020000096ED080ADFED810AB4EE608AF1EE10FA6F
:1020100016DBD6ED078A38EEC00A10EE100AFFF77D
:10202000D1FC884A884B00F08BFBFFF743FE00EEA3
:10203000100A78EEC00A40EE080AC4ED130A01E067
:1020400084ED130AD5ED078AB7EE000AF4EE408A54
:10205000F1EE10FA1CDBD6ED090A9FED6B0AF4EEE7
:10206000408AF1EE10FA02DBC4ED140A32E096ED7C
:102070000A0A30EEC00AB5EE001A20EE010AB1EEEF
:10208000041A40EE410A40EE280AC4ED140A21E089
:1020900096ED0B0ADFED5D0AF4EE608AF1EE10FAC0
:1020A00016DB96ED0A9A39EE400A10EE100AFFF799
:1020B00089FC644A644B00F043FBFFF7FBFD00EE34
:1020C000100A79EE400A40EE280AC4ED140A01E035
:1020D00084ED140A95ED089AB7EE000AB4EE409A22
:1020E000F1EE10FA1CDBD6ED0C0A9FED470AB4EEB8
:1020F000409AF1EE10FA02DBC4ED150A32E096EDDB
:102100000D0A30EEC00AB5EE001A20EE010AB1EE5B
:10211000041A40EE410A40EE090AC4ED150A21E016
:1021200096ED0E0ADFED390AB4EE609AF1EE10FA80
:1021300016DBD6ED0D9A39EEC00A10EE100AFFF745
:1021400041FC404A404B00F0FBFAFFF7B3FD00EEC4
:10215000100A79EEC00A40EE090AC4ED150A01E042
:1021600084ED150AB2EE040A68EE000AFDEEE00AFC
:1021700010EE900AC0B2322801DB322002E00028C3
:1021800000D10120C0F13200C0B22B4951F820101B
:10219000A165264951F82000606668EE800AFDEED0
:1021A000E00A10EE900AC0B2322801DB322002E0D1
:1021B000002800D10120C0F13200C0B21F4A52F8FD
:1021C0002020E26501EB8000D0F8CC00A06629EE6B
:1021D000000ABDEEC00A10EE100AC0B2322801DBC0
:1021E000322002E0002800D10120C0F13200C0B24C
:1021F000134A52F82020226601EB8000D0F89801A3
:10220000E066BDEC048B70BDCDCC9C40CDCCCC3D0C
:102210000030004028000048781E00200000002008
:1022200000F80008C0180020DC2000205C16002008
:1022300028170020F4170020001A0020CC1A0020D4
:10224000981B0020CDCCCCCCCCCCEC3F7CB5A04CAA
:102250004AF6AA2525609F480188872902D140882F
:1022600087286BD0002002469B4B01E05A54401C4B
:10227000014689B24029F9DB164608E0964BA022B8
:102280004021B00180B2FFF769FB2560761C304623
:1022900080B2C828F2DB7B20ADF800006B46A0229C
:1022A00002214FF4E850FFF759FB00F06DFB8D4C15
:1022B00013212046FEF730FDADF80000E0844FF416
:1022C000C85000F03CF84FF4D05000F038F800F05F
:1022D0000FF9824887210180418000F015F9002024
:1022E0007F4C04E00021024692B2A154401C0146FA
:1022F00089B26029F6D39FED7C0B84ED0C0B84ED45
:10230000140B012020600020A0802F212046FEF722
:1023100003FDA4F85E002346A0224021A088FFF719
:102320001DFB04F14003A0222021A088403080B290
:10233000FFF714FBFEF76AFDFEF714FD73BD70B5E1
:1023400005460026282401E0403CE4B2002C10D0D1
:102350003046C0B2634911EB8013A022402115EB37
:10236000801080B2FFF7FAFA761C412CECDA0024D8
:10237000ECE770BD80B5FFF769FF00F004F8BDE839
:102380000140FFF7EDB82DE9F0470024504E4AF622
:10239000AA273760534D2B46A02228214FF4C8505E
:1023A000FFF716FA14212846FEF7B6FC002800D0E5
:1023B00001242B46A02228214FF4D050FFF708FA21
:1023C00014212846FEF7A8FC002801D044F002049E
:1023D000002C20D0012C0CD12B46A02228214FF418
:1023E000D050FFF7F5F94FF4C850FFF7A8FF37605A
:1023F00018E0022C0CD12B46A02228214FF4C85003
:10240000FFF7E6F94FF4D050FFF799FF376009E086
:1024100000F057F806E02B46A02228214FF4D050B8
:10242000FFF7D6F937604FF000094D462C46A2461B
:10243000DFF8A48017E0A02260214FEACA1080B222
:10244000FFF7C6F930214046FEF766FC37600028EA
:1024500007D1D8F80000814503D28146D8F804504E
:1024600001240AF1010A504680B228284346E2DBE3
:10247000A02260214FF4E050FFF7AAF93021404636
:10248000FEF74AFC00280BD1D8F80000814507D29E
:10249000134BA02260214FF4E050FFF799F90BE0B5
:1024A000002C02D100F00DF806E00D4BA0226021B7
:1024B000284680B2FFF78CF93760BDE8F047FFF798
:1024C0003DB94AF6AA2002490860FDE70000000075
:1024D0000030004060F80008641C0020B01D00209F
:1024E000781E00200C000020F168E388B5F8E43E77
:1024F0000020DFF8242204E0DFF82012095C1154E8
:10250000401C6428F8D3704738B500F051FADFF862
:102510000C42204600F05FFA002508E0DFF8F801E1
:1025200050F8251004EB850000F072FA6D1C192D8F
:10253000F4DBBDE8314000F047BA00002DE97043FC
:102540002DED0A8B04460D46DFF8E061F7EE000A38
:1025500030EE200A10EE100AFFF734FA0022DFF8FE
:10256000D031FFF7D5FA41EC100B00F0AEFA53EC86
:10257000102BDFF8C001DFF8C01100F0B9FAFFF747
:1025800099FB70606648306096ED010ADFED640AE1
:1025900080EE209A86ED029A9FED620B00F09BFA86
:1025A000B0EE408AF0EE608A9FED5E0B00F093FA89
:1025B000B0EE40AAF0EE60AA9FED5A0B00F08BFA45
:1025C000B0EE40BAF0EE60BAF0EE009AB7EE00CA94
:1025D00009EE69CAB7EE000A70EE49CA2CEE0C0A81
:1025E00010EE100AFFF7EEF953EC1A2BFFF790FAF2
:1025F00053EC1B2BFFF78CFA80468946B1EE000A9C
:1026000029EE000A20EE2C0A10EE100AFFF7DAF984
:1026100042464B4600F06CFA41EC100BFFF7F6F91E
:1026200051EC100B804689461CEE100AFFF7CAF9E0
:1026300053EC182BFFF76CFA02460B46404649460E
:1026400000F014FB804689462CEEA90A10EE100A11
:10265000FFF7B8F902460B464046494600F070F8CD
:10266000FFF728FBF0609FED2F0B00F034FAB0EE7F
:10267000408AF0EE608A9FED2B0B00F02CFAB0EE52
:10268000409AF0EE609A9FED270B00F02AFAB0EE28
:1026900040AAF0EE60AA9FED230B00F022FAB0EE04
:1026A00040BAF0EE60BAF068FFF78CF941EC1C0B11
:1026B00053EC1C2B51EC180B00F01AFA804689469B
:1026C00053EC1C2B51EC190B00F012FA42464B460E
:1026D000FFF71EFA8046894653EC1A2B51EC1B0B70
:1026E000FFF716FA42464B4600F002FA41EC100B97
:1026F000FFF78CF953EC102B0020DFF8401000F0AE
:102700001FF8FFF7D7FA30612060F0682860BDEC51
:102710000A8BBDE870830000501D002000F80008FF
:10272000DB0FC93D00000060FB21B93F64200020A1
:102730000000E03FA138DB3752C1F0BF0000F03F9E
:10274000F0B540F2FF7581EA030C0CF0004C15EA7D
:1027500011541DBF15EA1357AC42AF42E5E0BC412E
:10276000C1F31301C3F31303801A994143F4801397
:1027700004D2641E4000494180185941C90241EA0F
:102780005051B1FBF3F603FB1611A2FB0675D7EB14
:10279000C020A94102D2761E80185941C90241EADF
:1027A0005051B1FBF3FE03FB1E11A2FB0E75D7EBDC
:1027B000C020A94103D2AEF1010E8018594189020F
:1027C00041EA9051760546EA8E2EB1FBF3F603FB03
:1027D0001611A2FB0675D7EB8020A94102D2761E06
:1027E00080185941C90241EA50514EEA060EB1FB28
:1027F000F3F603FB1611A2FB0675D7EBC020A94127
:1028000002D2761E80185941C90241EA5051B1FBEB
:10281000F3F703FB1711A2FB0735D3EBC020A94147
:1028200067F100070CBF004247F0010766F3D527A8
:102830004FEA1E31B80814F5806412DDBD0775F14A
:10284000004250EB0E5051EB045111F5801F5CBF5C
:1028500041EA0C01F0BD4CF07F6141F0E041002005
:10286000F0BDBD076D0840EA0E5041F48011D4F16F
:102870000104B4F120060ADAC4F120060200E040A7
:1028800001FA06F3E1401843B24015430EE0342C40
:1028900013DCC6F1200445EA40056D0820FA06F273
:1028A000154321FA06F0A1400D43002175F10042C5
:1028B00050F1000051EB0C01F0BD00205FEA0C016B
:1028C000F0BDCFB992185B41B3FA83F704BFB2FAF7
:1028D00082F6BF190B3FB7F120062FBF02FA06F3AD
:1028E000BB40C7F1200622FA06F638BF3343BA4090
:1028F0001CB1E419641E33E77F4231F00041B1FAA4
:1029000081F404BFB0FA80F6A4190B3CB4F12006A0
:102910002FBF00FA06F1A140C4F1200620FA06F606
:1029200038BF3143A0403C1B1AE7AC421ABF05EA4E
:102930001357AF4212E050EA41061CBF52EA430669
:10294000BFE750EA4107304661461CBF41EA0551E6
:10295000F0BD52EA430C08BFC143F0BD00204FF464
:10296000001616EB410F98BF16EB430F08BF16EB8E
:10297000410F24BFC14305E016EB430F0CBF614676
:102980004CEA0551F0BD0000002009E0064900EBCB
:10299000400201EBC201C98A044A22F81010401C0F
:1029A0001328F3DB704700000C3700080C000020F0
:1029B000DFF8D800C168090605D5DFF8D41001603A
:1029C000DFF8D01001607047DFF8CC00016841F0FB
:1029D00080010160704738B504464FF4302000F0A4
:1029E0005FF80146042912D1DFF8AC50286840F0A6
:1029F000020028606C60286840F0400028604FF4B6
:102A0000302000F04DF8296821F00201296032BD24
:102A10007CB504460D46002000904FF4302000F0B5
:102A20003FF8014604291FD1DFF86C60306840F0A0
:102A30000100306025804FF4302000F031F801466D
:102A400004290DD1A41C00942D0C009805804FF48E
:102A5000302000F025F8316849084900316076BD22
:102A6000316849084900316076BD04200B490A6885
:102A7000D20701D5012070470A68D20601D502208D
:102A800070470968490700D50320704704200240B9
:102A900023016745AB89EFCD102002400C20024096
:102AA00010B50446FFF7E1FF02E0FFF7DEFF641E0A
:102AB0000146012901D1002CF7D1002C00D10520BD
:102AC00010BD000041EC100B01BD80B551EC100BA6
:102AD00000F03EF9F6E780B551EC100B00F0BAFBC0
:102AE000F0E780B551EC100B00F0B6FBEAE7000010
:102AF00070B44FF0004591EA030F40F1BF806B4086
:102B0000841A71EB030604D26E40001BB141121906
:102B100073414FF4001C1CEB410F34BF7CEB4306A8
:102B200083E00C0DA4EB1356362E00F37C80012EAF
:102B300045EAC32341DC43EA525312BFD202920258
:102B40005B08240545EAC12141EA5051D2EBC0207F
:102B5000994125D407D1B0FA80F610FA06F162D077
:102B60000020203608E0B1FA81F6B140C6F120021B
:102B700020FA02F21143B0404FEAF474B4EB465429
:102B800034F001064FEA74040AD8D6F50016760D23
:102B900004F00044F04061FA06F25040F140484031
:102BA000C00A40EA415021F0004128BF5FEA5005C9
:102BB00050F1000044EBD12135E0DB0A45EAC121A8
:102BC000C90AB6F120050EDD42EA0242120CC5F137
:102BD000200603FA06F6EB4042EA06056D429841EC
:102BE00061F100010DE062FA06F5F240554063FA2A
:102BF00006FC82EA0C02F3405A406D42904161EBC0
:102C0000030111F4801F05D1641E620502D06D001E
:102C10004041494121F48011430875F1004350F1CE
:102C2000000041EB045170BC70471CEB410F15D202
:102C300023F0004352EA43060BD04FEA4C0CBCEBA6
:102C4000410F04D80C0D661E342EB7DDEBE7801A59
:102C5000994150EA410608BF0021E4E708BF1CEB98
:102C6000430F28BF6FF00001DDE7000070B44FF0A4
:102C7000004591EA030F7FF543AF6B40841A71EB77
:102C8000030603D2001BB141121973414FF4001C1B
:102C90001CEB410F34BF7CEB430442E00C0DA4EB72
:102CA0001356352E4FDC45EAC323DB0A45EAC12122
:102CB000C912B6F120050DDD63FA05F6EB4086EA90
:102CC0000305124218BF45F00105C01851F100017B
:102CD0000CD213E062FA06F5F2405540F3415A4037
:102CE000B340F3405A408018594107D349085FEA7E
:102CF00030005FEA350528BF45F0010501F5801178
:102D0000420875F1004250F1000041EB04514E00C1
:102D100016F5001F70BC38BF70470020090D09056B
:102D200070471CEB410F10D252EA43060BD0BCEBAC
:102D3000410F05D80C0DAB43661E342EB6DD02E004
:102D4000AB438018594170BC704770BC704700009D
:102D5000D0B541EC100B48004015401C2DED048B04
:102D600004D1090318BF51EC100B48D157EC106B7C
:102D700051EC100BC80F21F00040074647EC186BD0
:102D80009FED219B14BF0424022451EC190B53EC3A
:102D9000182BFFF76BFF06460F4653EC182B51EC30
:102DA000190BFFF7A5FE32463B46FEF7B1FEFEF7D4
:102DB00035FE41EC190B51EC180B154A154B00F080
:102DC0004DFA38BF53EC192B0AD301220D4B00F0FA
:102DD00045FA0ED284F0020451EC190B53EC182B77
:102DE000FFF7AEFCBDEC048B2246BDE8D04000F0FE
:102DF0004DBAAFF300804FF0FF306FF00041BDECF3
:102E0000048BD0BD0000F03F000000000000F03F48
:102E1000CE3B7F669EA0E63FF8B52DED068B41ECDC
:102E2000180B154653EC182BDFF89803DFF89813AE
:102E3000FEF76EFE41EC190B21F00041DFF88C2308
:102E4000DFF88C3300F00AFA6AD253EC192B9FEDAD
:102E5000B70B03F0004251EC100B0C46144353EC3B
:102E6000102B51EC190B2346FFF742FE00F0F6FA47
:102E7000040051D000F010FB0022D64BFEF748FEB4
:102E800041EC190B53EC192B4FF0A040D249FEF73F
:102E90003FFE02460B4651EC180BFFF7E7FE0646D5
:102EA0000F4653EC192B4FF0C040CC49FEF730FED3
:102EB00002460B4630463946FFF7D8FE06460F4617
:102EC00053EC192B4FF00050C549FEF721FE024686
:102ED0000B4630463946FFF7C9FE06460F4653EC0F
:102EE000192B0020BF49FEF713FE02460B46304661
:102EF0003946FFF7BBFE06460F4653EC192B4FF041
:102F00000050B949FEF704FE02460B4630463946EA
:102F1000FFF7ACFE41EC180B04F003046519B7E0B1
:102F200051EC180B48004015401C51EC180B0DD10A
:102F300048004015401C02D1090340F03D81BDEC22
:102F4000068B4FF0FF306FF00041F4BD31F00041CF
:102F500008BF002805D1002D00F02E819FEDBB8B0E
:102F60002AE153EC192B9FED710B03F0004251EC59
:102F7000100B0C46144353EC102B51EC190B234649
:102F8000FFF7B6FD4B0043EAD0734200002B08BFA9
:102F9000002A41EC190B19D040F23344A4EB5352F0
:102FA000352A04DB00F0000001F000410CE0202A8B
:102FB00003DD203AD140914000E001D1002003E040
:102FC000002AC4BFD040904041EC190B51EC190BC2
:102FD00020F0000231F0004308BF002A51D053EC2A
:102FE000192B00207B49FEF793FD41EC1A0B53ECA3
:102FF0001A2B4FF0A0407849FEF78AFD02460B4697
:1030000051EC180BFFF732FE06460F4653EC1A2B15
:103010004FF0C0407149FEF77BFD02460B4630463B
:103020003946FFF723FE04460E4653EC1A2B4FF0A9
:1030300000506B49FEF76CFD02460B4620463146B8
:10304000FFF714FE06460F4653EC1A2B0020654985
:10305000FEF75EFD02460B4630463946FFF706FE98
:1030600006460F4653EC1A2B4FF000505E49FEF710
:103070004FFD02460B4630463946FFF7F7FD41EC5F
:10308000180B51EC190B00F0E9F900F00300451999
:1030900051EC180B21F0004100224FF0795300F061
:1030A000DDF805F0010405D2002C00F07D809FEDD5
:1030B000678B79E053EC182B51EC180BFEF728FDC9
:1030C000002C41EC190B35D053EC192B47484849DB
:1030D000FEF71EFD474A484BFFF70AFD53EC192B3C
:1030E000FEF716FD454A464BFFF702FD53EC192B40
:1030F000FEF70EFD434A444BFFF7FAFC53EC192B45
:10310000FEF706FD414A424BFFF7F2FC53EC192B48
:10311000FEF7FEFC6FF051023E4BFFF7E9FC53EC6B
:10312000192BFEF7F5FC00223B4B39E000000000B4
:103130000000E03F53EC182BFEF7EAFC06460F4672
:1031400053EC192B35483649FEF7E2FC354A364B2D
:10315000FFF7CEFC53EC192BFEF7DAFC334A344B65
:10316000FFF7C6FC53EC192BFEF7D2FC314A324B69
:10317000FFF7BEFC53EC192BFEF7CAFC2F4A304B6D
:10318000FFF7B6FC53EC192BFEF7C2FC2D4A2E4B71
:10319000FFF7AEFC32463B46FEF7BAFC53EC182B69
:1031A000FFF7A6FC41EC180BA80705D551EC180B4E
:1031B00081F0004141EC180B51EC180BBDEC068B73
:1031C000F4BD000083C8C96D305FE43F0000A0FF7C
:1031D000FFFFDF410000303EFB21B941B410114038
:1031E00026A6513E5C14D33C9A833B3B09260A1029
:1031F00039BA213E3BA861C6F97D92BE63AC3090DE
:103200009F01FA3EF6FB51166CC156BFB1025555EF
:103210005555A53FFFFFDFBF0000F03FB08F2FC324
:1032200010D8E53D8F0C73A1E1E55ABE4DADE44FDA
:10323000E31DC73E3EE3B519A0012ABFFAF0101105
:103240001111813F425555555555C5BF000000002D
:103250000000F03F0122DFE50022DDE54FF4001C15
:103260001CEB410F94BF1CEB430F09E041EA030C38
:1032700050EA4C0C52EA0C0C03D2994208BF90421F
:10328000704714BF8B42824270470000D0B52DEDCD
:10329000048B41EC180B144653EC182B00206E499C
:1032A00000F00CF908BF9FED578B00F0838051ECC4
:1032B000180B564A564B00F011F91DD89FED559B3F
:1032C00053EC182B51EC190BFEF722FC0022534B48
:1032D000FFF70EFC06460F4653EC182B51EC190B6A
:1032E000FFF706FC02460B4630463946FFF728FA40
:1032F00041EC180B44F0010451EC180B21F0004193
:1033000001224FF0795300F0E9F853D853EC182B11
:1033100051EC180BFEF7FCFB41EC190B53EC182B8E
:10332000FEF7F6FB06460F4653EC192B3C483D4989
:10333000FEF7EEFB3C4A3D4BFFF7DAFB53EC192B53
:10334000FEF7E6FB3A4A3B4BFFF7D2FB32463B46E1
:10335000FEF7DEFB53EC182BFFF7CAFB06460F46C1
:1033600053EC192B34483549FEF7D2FB344A354B20
:10337000FFF7BEFB53EC192BFEF7CAFB324A334B67
:10338000FFF7B6FB53EC192BFEF7C2FB304A314B6B
:10339000FFF7AEFB53EC192BFEF7BAFB00222E4BC6
:1033A000FFF7A6FB02460B4630463946FFF7C8F941
:1033B00041EC180BA00705D551EC180B81F000412A
:1033C00041EC180B14F007020CD00D4B7B4430334A
:1033D00003EBC20251EC180B53681268FFF788FB2D
:1033E00041EC180B200705D551EC180B81F000417A
:1033F00041EC180B51EC180BBDEC048BD0BD00BF99
:10340000C0070000182D4454FB21E93F57CD9E5EB4
:103410001426D13FAA4C58E87AB6FB3F0000F0BF13
:10342000845D57134B57B03FB2934C19ED5EE43FA8
:10343000BEDE02B90240F83FDE39028FC7C0743FDA
:103440008AAB1283000CC83F24D7E508B6D8F03FFA
:103450000F34580E5895FD3F0000F03FC1F30A535A
:1034600040F2FE329B1A14DDD3F120034FEAE172E1
:1034700008DDC90241EA505141F00040D8408018AF
:103480005040704703F2E13010B1D24382F0004067
:103490007047002070470000C11768B14840401ACB
:1034A000B0FA80F29040D21CC907C2F5846241EAAA
:1034B000025202EBD02140057047000090420CD12F
:1034C00041EA030C50EA4C0C07D0994205D14FF465
:1034D000001C1CEB410F38BF894270474FF4001CA1
:1034E0001CEB410F94BF1CEB430F09E041EA030CB6
:1034F00050EA4C0C52EA0C0C03D28B4208BF8242B9
:10350000704714BF99429042704700000000803F0E
:103510006DC47E3FBE147B3F0BFA743F5E836C3FED
:1035200098C5613F31DB543F03E4453FF304353F29
:103530009967223FDA390E3FEA5AF13E15EFC33E52
:1035400031A0943EC2C5473E36BDC83D00000000D4
:1035500036BDC8BDC2C547BE31A094BE15EFC3BEBF
:10356000EA5AF1BEDA390EBF996722BFF30435BFBC
:1035700003E445BF31DB54BF98C561BF5E836CBFB8
:103580000BFA74BFBE147BBF6DC47EBF000080BF4A
:103590006DC47EBFBE147BBF0BFA74BF5E836CBF6D
:1035A00098C561BF31DB54BF03E445BFF30435BFA9
:1035B000996722BFDA390EBFEA5AF1BE15EFC3BED2
:1035C00031A094BEC2C547BE36BDC8BD00000000D4
:1035D00036BDC83DC2C5473E31A0943E15EFC33E3F
:1035E000EA5AF13EDA390E3F9967223FF304353F3C
:1035F00003E4453F31DB543F98C5613F5E836C3F38
:103600000BFA743FBE147B3F6DC47E3F0000000088
:1036100036BDC83DC2C5473E31A0943E15EFC33EFE
:10362000EA5AF13EDA390E3F9967223FF304353FFB
:1036300003E4453F31DB543F98C5613F5E836C3FF7
:103640000BFA743FBE147B3F6DC47E3F0000803F89
:103650006DC47E3FBE147B3F0BFA743F5E836C3FAC
:1036600098C5613F31DB543F03E4453FF304353FE8
:103670009967223FDA390E3FEA5AF13E15EFC33E11
:1036800031A0943EC2C5473E36BDC83D0000000093
:1036900036BDC8BDC2C547BE31A094BE15EFC3BE7E
:1036A000EA5AF1BEDA390EBF996722BFF30435BF7B
:1036B00003E445BF31DB54BF98C561BF5E836CBF77
:1036C0000BFA74BFBE147BBF6DC47EBF000080BF09
:1036D0006DC47EBFBE147BBF0BFA74BF5E836CBF2C
:1036E00098C561BF31DB54BF03E445BFF30435BF68
:1036F000996722BFDA390EBFEA5AF1BE15EFC3BE91
:1037000031A094BEC2C547BE36BDC8BD0000000092
:10371000343D00083C3D00083200E703010003008F
:1037200001009F0101000000343D0008443D0008F5
:10373000000002000100030002000000020000007F
:10374000343D00084C3D000800000100010003006A
:103750000300000003000000543D00083C3D000849
:103760003200E7030100030000009F010400000095
:103770005C3D00083C3D00080100E7030100030038
:1037800001000500050000005C3D0008443D000804
:10379000000002000100030002000000060000001B
:1037A0005C3D00084C3D00080000010001000300E2
:1037B0000300000007000000643D00083C3D0008D5
:1037C00001000A00010002000000050008000000DE
:1037D000843D00088C3D000800000100010D100030
:1037E00000000000090000006C3D00087C3D00085E
:1037F00000000100010C1000000000000A000000A1
:10380000243D00082C3D00080100C8000100030011
:10381000000005000B000000D43D0008143D000826
:103820000200030001000300000003000C00000080
:103830001C3D00087C3D000800000100010B100049
:10384000000000000D000000943D00089C3D0008B1
:103850000100F70001000300000001000E0000005D
:10386000A43D0008AC3D000800000400010E050066
:10387000000003000F000000B43D0008BC3D00083C
:1038800000000200010F1000000000001000000006
:10389000C43D0008CC3D00080000010001101000EC
:1038A0000000000011000000743D00087C3D00088D
:1038B00000000100011110000000000000000000E5
:1038C00000000000000000000000000000000000F8
:1038D0000000000080B53948016841F470010160C2
:1038E0003749086840F001000860486800F47F002C
:1038F00048600A68334802400A60086820F4802063
:103900000860486820F4FE004860C86A00090001A9
:10391000C8620A6B2C4802400A630020886000F0ED
:1039200005F84FF000602949086001BD82B0002011
:10393000009001902249086840F4803008600868CF
:1039400000F4003001900098401C0090019800287D
:1039500003D10098B0F5A06FF1D10868400C00F0D9
:10396000010001900198012826D10020184A10601A
:10397000486840F09000486048684860486848607F
:10398000486820F47C104860486840F4A0204860F3
:10399000086840F08070086008688001FCD54868BD
:1039A000800880004860486840F00200486048682D
:1039B00000F00C000828FAD102B0704788ED00E052
:1039C00000100240FFFFF6FE8C0FFF0F08ED00E035
:1039D000002002407047FEE7FEE7FEE7FEE7704783
:1039E000704770477047704700202C490880FCF7EB
:1039F000DBBB00202A49088000F064B80020294978
:103A0000088000F065B810B427480168090509D599
:103A1000416841F4006141602448016841F00401BB
:103A2000016019E00168C90709D520490A6842F018
:103A300008020A60416841F0010141600CE01C4944
:103A40000A781346622B008902DB1A49087003E0EA
:103A5000194CE054521C0A7010BC7047174801689A
:103A6000890605D511490A6842F010020A6007E08C
:103A70000168090604D50D490A6842F400520A603B
:103A8000C16921F00A01C161416841F01001416042
:103A90004FF480500A490860704700001000004051
:103AA00010080040100400401C4800408C200020FA
:103AB000E6200020E0200020B41D0020000002408D
:103AC000180000481248018841F001010180704748
:103AD00030B41048016889B20F4A10880F4B002893
:103AE00004D11980401C108030BC70471C880D1B0D
:103AF00019800B490B6813FA85F30B600428F1D188
:103B00009B0808480380002010800860ECE7000054
:103B1000C620002040040040C2200020C020002019
:103B2000AC2000203800002000FC006080DA80F229
:103B3000806680B680BE00E080FE80F60000000057
:103B40000000000000000000000080EE803E009CAD
:103B5000807A809E008E80BC806E24900070120E51
:103B6000001C506C426C00FC80CE82C682CE80B6B7
:103B70002480007C180C0A6C5A0054001890000035
:103B8000000000000000800200000000807A801A1F
:103B9000807A0000000000FB802E00000000000082
:103BA00000000000802A803A00000000800A000027
:103BB000002E00380000000000000000000000009F
:103BC000000000000000000066732D3852C1E03F85
:103BD000182D4454FB21F93F66732D3852C1F03F34
:103BE000182D4454FB21F93F66732D3852C1004013
:103BF000182D4454FB2109403FD038C6A6F104409B
:103C000030B5016884684218416802EB5103C90766
:103C100003D54C4401E0491C05D19A420AD012F95F
:103C2000011B12F8015B002904F8015BF3D4491E63
:103C3000F7D5F2E70C3030BD10B50749794418319B
:103C4000064C7C44163404E00A68081D1144884779
:103C50000146A142F8D110BD2C0000004800000030
:103C60004EF68851CEF20001086840F470000860FA
:103C7000BFF34F8FBFF36F8F4FF00070E1EE100A6C
:103C80007047000007DDFFFF702000007800002073
:103C9000000000006DFFFFFF300200000C0000007C
:103CA0000000002000F00DF8002801D0FFF7C4FF4D
:103CB000AFF300800020AFF30080FEF72FF800F094
:103CC00002F80120704700F001B8000007463846AE
:103CD00000F002F8FBE7000080B5AFF30080024A75
:103CE00011001820ABBEFBE7260002000148804708
:103CF00001480047D5380008093D000800010203CB
:103D000004050607080BFF00AFF30080FFF7A8FFCC
:103D1000FFF7C8FF5245534F0000000020454E45B5
:103D200000000000535452540000000020204D4178
:103D30000000000050545052000000002056414C3A
:103D4000000000002044454300000000554E495447
:103D500000000000505453520000000043545052E1
:103D6000000000004354535200000000204B564115
:103D700000000000454E44490000000054595045E1
:103D8000000000002053595300000000434F4E46EE
:103D90000000000020444556000000002020494457
:103DA00000000000424155440000000052415445CB
:103DB00000000000434F4D4D0000000050415249AB
:103DC0000000000053544F500000000020424954AE
:103DD00000000000444953500000000003060BFFA0
:103DE000FFF7FEBFFFF7FEBFFFF7FEBFFFF7FEBF07
:103DF000FFF7FEBFFFF7FEBFFFF7FEBFFFF7FEBFF7
:103E0000FFF7FEBFFFF7FEBFFFF7FEBFFFF7FEBFE6
:103E1000FFF7FEBFFFF7FEBFFFF7FEBFFFF7FEBFD6
:103E2000FFF7FEBFFFF7FEBFFFF7FEBFFFF7FEBFC6
:103E3000FFF7FEBFFFF7FEBFFFF7FEBFFFF7FEBFB6
:103E4000FFF7FEBFFFF7FEBFFFF7FEBFFFF7FEBFA6
:103E5000FFF7FEBFFFF7FEBFFFF7FEBFFFF7FEBF96
:103E6000FFF7FEBFFFF7FEBFFFF7FEBFFFF7FEBF86
:103E7000FFF7FEBFFFF7FEBFFFF7FEBFFFF7FEBF76
:103E8000FFF7FEBFFFF7FEBFFFF7FEBFFFF7FEBF66
:103E9000FFF7FEBFFFF7FEBFFFF7FEBFFFF7FEBF56
:103EA000FFF7FEBFFFF7FEBFFFF7FEBFFFF7FEBF46
:103EB000FFF7FEBFFFF7FEBFFFF7FEBFFFF7FEBF36
:0E3EC000FFF7FEBFFFF7FEBFF900003D9000C8
:10F800000000803F0000803F0000803F0000803FFC
:10F810000000803F0000803F0000803F0000803FEC
:10F820000000803F0000803F0000803F0000803FDC
:10F830000000803F0000803F0000803F000000008B
:10F8400000000000000000000000000000000000B8
:10F8500000000000000000000000000000000000A8
:04F8600000000000A4
:0400000508003D09A9
:00000001FF
