:020000040800F2
:10000000B0330020659C00080D9800080F98000888
:1000100011980008139800081598000800000000C7
:100020000000000000000000000000001798000819
:1000300019980008000000001B9800081D9800088F
:10004000A99E0008AD9E0008B19E0008B59E00085C
:10005000B99E0008BD9E0008C19E0008C59E00080C
:10006000C99E0008CD9E0008D19E00081F98000878
:1000700095980008D59E0008D99E0008DD9E0008CE
:10008000E19E0008E59E0008E99E0008ED9E00083C
:10009000F19E0008F59E0008F99E0008FD9E0008EC
:1000A000019F0008059F0008099F00080D9F000898
:1000B00021980008359800082B980008119F000827
:1000C000159F0008199F00081D9F0008219F000828
:1000D000259F0008299F00082D9F00083F980008D1
:1000E000319F0008359F0008399F00083D9F000898
:1000F000419F0008459F000800000000000000002C
:100100000000000000000000499F00084D9F00080B
:100110000000000000000000519F0008559F0008EB
:10012000599F00085D9F0008619F0008659F0008B7
:10013000699F00086D9F0008719F0008759F000867
:10014000799F00080000000000000000000000008F
:10015000000000000000000000000000000000009F
:1001600000000000000000007D9F0008819F000843
:10017000859F000800000000899F00080000000023
:10018000000000008D9F00082DE9F0412DED088B47
:100190000020DFF84C5B14E0DFF8481B05EB800221
:1001A00092ED0F0ADFEDD40A80EE200A01EB800207
:1001B000D2ED000A30EE200A01EB800181ED000A49
:1001C000401C0628E8DBDFF8208BD8F8000095ED0E
:1001D000060AB5EE400AF1EE10FA04D540F0080028
:1001E000C8F8000003E020F00800C8F80000D8F8C4
:1001F000000095ED070AB5EE400AF1EE10FA04D5BD
:1002000040F01000C8F8000003E020F01000C8F82B
:100210000000D8F8000095ED080AB5EE400AF1EEAE
:1002200010FA04D540F02000C8F8000003E020F0E8
:100230002000C8F8000001F001FB00F0FFFEDFF82D
:10024000841D088A01280AD100226A60AA602A61F6
:100250006A61EA62EA612A622A636A63AA638A8A35
:1002600000EE102AB8EE400ADFEDA40A80EE200A64
:10027000DFEDA30ADFF8506D96ED061AB4EE601AB2
:10028000F1EE10FA01D5F26FB26106F1840796ED36
:10029000061AB4EE401AF1EE10FA04D50022B2614B
:1002A000F267FA62AA6196ED071AB4EE601AF1EEEF
:1002B00010FA02D5D6F88020F26196ED071AB4EE56
:1002C000401AF1EE10FA05D50022F261C6F880203E
:1002D0003A63EA6196ED081AB4EE601AF1EE10FA8C
:1002E00001D53A68326296ED081AB4EE401AF1EE82
:1002F00010FA04D5002232623A607A632A6200283A
:1003000014D196ED090AB4EE600AF1EE10FA01D5A7
:100310007A68726296ED090ADFED7A0AB4EE600A35
:10032000F1EE10FA16D50022726213E0022811D104
:1003300096ED071AB4EE601AF1EE10FA01D57A685C
:10034000F261D6ED070AF4EE400AF1EE10FA01D59B
:100350000022F261B2EE040AD6ED000AF4EE400A81
:10036000F1EE10FA04D500223260AA613A62BA6056
:10037000F3EE010A96ED031AB4EE601AF1EE10FAEC
:1003800001D50022F26096ED011AB4EE401AF1EEAA
:1003900010FA04D500227260EA617A62FA6096ED82
:1003A000041AB4EE601AF1EE10FA01D5002232619F
:1003B00096ED021AB4EE401AF1EE10FA04D50022BE
:1003C000B2602A62BA623A6196ED050AB4EE600A3A
:1003D000F1EE10FA01D500227261DFF8402C14789A
:1003E000042CC0F24C8197ED1F0A06F58272022898
:1003F00016D1D6ED030A30EE200A87ED1F0A92EDE2
:10040000020AD6ED040A30EE200A82ED020A92EDCD
:10041000050AD6ED050A30EE200A82ED050A15E040
:10042000D6ED000A30EE200A87ED1F0A92ED020A8F
:10043000D6ED010A30EE200A82ED020A92ED050A9D
:10044000D6ED020A30EE200A82ED050A92ED080A86
:10045000D6ED060A30EE200A82ED080AD2ED0B0A2C
:1004600096ED071A70EE810AC2ED0B0A92ED0E1A94
:10047000D6ED081A31EE211A82ED0E1ADFF8A03BF4
:1004800093F800C00CF1010C83F800C05FFA8CFCFB
:10049000BCF11E0F40F0F380F3EE0E1A80EE210A3D
:1004A00082ED080AC0EEA10AC2ED0B0A81EE211A04
:1004B00082ED0E1AD7ED1F1AB3EE0E2AC1EE821A84
:1004C000C7ED1F1A92ED022AF3EE0E2A82EE222ABF
:1004D00082ED022AD2ED052AB3EE0E3AC2EE832A4D
:1004E000C2ED052A92ED063AB5EE403AF1EE10FA69
:1004F0000AD182ED060A13E00000484500007A4464
:100500000AD7233D0AD7A33BB4EE430AF1EE10FA13
:1005100006D5B5EE403AF1EE10FA01D082ED060AAA
:1005200092ED073AB4EE403AF1EE10FA01D582EDC1
:10053000070A92ED090AB5EE400AF1EE10FA02D16F
:10054000C2ED090A0BE0F4EE400AF1EE10FA06D50E
:10055000B5EE400AF1EE10FA01D0C2ED090A92EDB3
:100560000A0AB4EE600AF1EE10FA01D5C2ED0A0AE9
:1005700092ED0C0AB5EE400AF1EE10FA02D182EDCE
:100580000C1A0BE0B4EE401AF1EE10FA06D5B5EEF7
:10059000400AF1EE10FA01D082ED0C1A92ED0D0A2C
:1005A000B4EE410AF1EE10FA01D582ED0D1A97ED85
:1005B0001D0AB5EE400AF1EE10FA02D1C7ED1D1A80
:1005C0000BE0F4EE401AF1EE10FA06D5B5EE400A53
:1005D000F1EE10FA01D0C7ED1D1A97ED1E0AB4EE28
:1005E000610AF1EE10FA01D5C7ED1E1A92ED000A6C
:1005F000B5EE400AF1EE10FA02D182ED002A0BE0CE
:10060000B4EE402AF1EE10FA06D5B5EE400AF1EE4E
:1006100010FA01D082ED002A92ED010AB4EE420AEE
:10062000F1EE10FA01D582ED012A92ED030AB5EE42
:10063000400AF1EE10FA02D1C2ED032A0BE0F4EE0B
:10064000402AF1EE10FA06D5B5EE400AF1EE10FAA6
:1006500001D0C2ED032A92ED040AB4EE620AF1EE73
:1006600010FA01D5C2ED042A4FF0000C83F800C047
:1006700063461362D3629363FB6793605361DFED5C
:10068000AE0A95ED060A20EE200A86ED0A0A96EDDE
:10069000060AB5EE400AF1EE10FA01D10022B2626C
:1006A00000280FD195ED071A21EE201A86ED0B1ABE
:1006B00096ED071AB5EE401AF1EE10FA10D10022AD
:1006C000F2620DE002280BD195ED091A21EE201AF5
:1006D000D5ED0A1A01EEA01AB1EE411A86ED0B1AF9
:1006E00095ED081A61EE200AC6ED0C0AD6ED080A4F
:1006F000F5EE400AF1EE10FA01D100223263D6ED98
:100700000A8A02282BD000207063D8F80000020764
:1007100004D5B1EE681A86ED0D1A01E0C6ED0D8A1A
:1007200096ED0B1AD6ED0D1AC20604D531EEC11A9C
:1007300086ED0D1A03E031EE811A86ED0D1A96ED65
:100740000C1AD6ED0D1A800604D531EEC11A86EDCD
:100750000D1A0EE031EE811A86ED0D1A09E096EDC4
:100760000B1A38EE811AD6ED0C1A31EE211A86EDED
:100770000D1A488A012814D196ED001A21EE000ABC
:1007800086ED120A96ED010A96ED071A20EE010A8F
:1007900086ED130A96ED020A20EE200A86ED140A71
:1007A00086E097ED080AD7ED080A20EE200AD7ED7B
:1007B000020A97ED021A60EE810A97ED0B1AD6ED48
:1007C0001F1A20EEA12A22EE212A60EE810A00EEF5
:1007D000812A60EE210A00EEA12A20EE010A00EE35
:1007E000012A12EE100A01F00FF941EC100B01F092
:1007F0002FF951EC100B01F0C9F9B06497ED0A0A1A
:10080000D7ED0A0A20EE200AD7ED040A97ED041A64
:1008100060EE810A97ED0D1AD7ED001A20EEA12A9D
:1008200022EE212A60EE810A00EE812A60EE210A82
:1008300000EEA12A20EE010A00EE012A12EE100AB3
:1008400001F0E2F841EC100B01F002F951EC100B51
:1008500001F09CF9306597ED090AD7ED090A20EE01
:10086000200AD7ED030A97ED031A60EE810A97ED8F
:100870000C1AD6ED201A20EEA12A22EE212A60EED3
:10088000810A00EE812A60EE210A00EEA12A20EE04
:10089000010A00EE012A12EE100A01F0B5F841EC4F
:1008A000100B01F0D5F851EC100B01F06FF9F0646A
:1008B00096ED120AB4EE680AF1EE10FA01D5C6ED13
:1008C000128A96ED0B0AD6ED130AF4EE400AF1EE09
:1008D00010FA01D586ED130AD6ED0C0A96ED141A1E
:1008E000B4EE601AF1EE10FA01D5C6ED140A96EDD9
:1008F000121AF7EE001A9FED828AB5EE401AF1EE59
:1009000010FA1BDD88EE812A86ED1A2AB5EE402A00
:10091000F1EE10FA05D5FFEE002A22EE222A86ED2E
:100920001A2A96ED1A2AB4EE482AF1EE10FA07DBDD
:10093000C6ED1A1A04E000BF53198832C6ED1A1A20
:1009400096ED132AB5EE402AF1EE10FA18DD80EE8E
:10095000020A86ED1B0AB5EE400AF1EE10FA05D543
:10096000FFEE002A20EE220A86ED1B0A96ED1B0AF6
:10097000B4EE480AF1EE10FA04DBC6ED1B1A01E0F2
:10098000C6ED1B1A96ED140AB5EE400AF1EE10FA08
:1009900018DDC0EE800AC6ED1C0AF5EE400AF1EE45
:1009A00010FA05D5FFEE002A60EEA20AC6ED1C0A79
:1009B000D6ED1C0AF4EE480AF1EE10FA04DBC6ED9F
:1009C0001C1A01E0C6ED1C1A71EE020A70EE808A54
:1009D000C6ED158A96ED0D0AF5EE408AF1EE10FA95
:1009E00018DDC0EE280AC6ED1D0AF5EE400AF1EE4C
:1009F00010FA05D5BFEE001A60EE810AC6ED1D0A99
:100A0000D6ED1D0AF4EE480AF1EE10FA04DBC6ED4D
:100A10001D1A01E0C6ED1D1AB5EE400AF1EE10FAFE
:100A200004DBDFEDAB0A20EE200A03E0DFEDA90ACC
:100A300020EE200AB5F8540000EE900AB8EE60AA45
:100A400020EE0A0ADFEDA40A80EE200A10EE100A5A
:100A500000F0DAFF41EC190B0022DFF8CC3501F091
:100A6000C9F801F0EBF9DFF8C4150860D6ED19AA52
:100A70002AEE2A0ADFED990A80EE20BADFF8B08567
:100A8000042C61DBDFF8AC05D0ED00BA1BEE900A58
:100A900000F0BAFF04460D4651EC190B4FF05042DE
:100AA000DFF8943501F0A6F801F070F800F0ACFF23
:100AB00022462B4601F0D6F9D8E9062301F0A4FA24
:100AC000C8E906011BEE900A00F09EFF04460D46A1
:100AD0001BEE100A00F098FF22462B4601F0C2F9E7
:100AE00041EC100BF5EE40AAF1EE10FA0ADD53ECE2
:100AF000102BD8E90A0101F087FAC8E90A0109E0D8
:100B00000100803FD8E90C0153EC102B01F03AFBB7
:100B1000C8E90C011BEE900A00F076FF04460D4672
:100B20002AEE280ADFED6D0A80EE200A10EE100A88
:100B300000F06AFF22462B4601F094F9D8E9082319
:100B400001F062FAC8E90801002498ED06ABDFF86D
:100B5000E80C90ED009B51EC190B53EC1A2B01F0B3
:100B600083FB08D251EC1A0B53EC192B01F00AFB52
:100B7000C8E90601012498ED0EAB51EC190B53ECBA
:100B80001A2B01F071FB08D251EC1A0B53EC192B04
:100B900001F0F8FAC8E90E01012498ED12AB51EC0E
:100BA000190B53EC1A2B01F05FFB08D251EC1A0B16
:100BB00053EC192B01F0E6FAC8E91201012498ED73
:100BC00014AB51EC190B53EC1A2B01F04DFB08D26E
:100BD00051EC1A0B53EC192B01F0D4FAC8E91401AB
:100BE000012498ED0AAB51EC190B53EC1A2B01F0D0
:100BF0003BFB08D251EC1A0B53EC192B01F0C2FA53
:100C0000C8E90A01012498ED0CAB51EC190B53EC27
:100C10001A2B01F029FB08D251EC1A0B53EC192BBB
:100C200001F0B0FAC8E90C01012498ED08AB51ECD1
:100C3000190B53EC1A2B01F017FB08D251EC1A0BCD
:100C400053EC192B01F09EFAC8E90801012498ED34
:100C500010AB51EC190B53EC1A2B01F005FB08D229
:100C600051EC1A0B53EC192B01F08CFAC8E9100166
:100C70000124DFF8540DD8F8081081420BD2D8F8BF
:100C80000C10814207D2D8F81010814203D2D8F854
:100C90001410814200D30124002C0BD072B600BF87
:100CA0004AF6AA20DFF8241D086001F06FFB01F06E
:100CB00019FB62B6DFF8180D9FEDC40AD6ED000AE5
:100CC000F4EE400AF1EE10FA10DB0121017023E08E
:100CD0008096184B809618CB00606A4560FE4D4B9D
:100CE00058210020F422002040010020D6ED010A06
:100CF000F4EE400AF1EE10FA02DB022101700BE083
:100D0000D6ED020AF4EE400AF1EE10FA02DB0321FE
:100D1000017001E00021017096ED060A96ED071AB8
:100D2000B4EE401AF1EE10FA04D5F0EE410AF0EEFE
:100D3000401A03E0F0EE411AF0EE400A96ED082A60
:100D4000F4EE421AF1EE10FA02D5F0EE421A06E085
:100D5000B4EE602AF1EE10FA01D5F0EE420A30EE60
:100D6000010A30EE020AB0EE081A80EE010A87EDA1
:100D7000140AB5EE400AF1EE10FA18D031EEC01A9E
:100D800070EE600ADFEDA41AF4EE410AF1EE10FAFB
:100D900006D561EE210A80EE800A87ED150A08E08B
:100DA00060EEA10A80EE800A87ED150A01E00020BE
:100DB000786596ED010AD6ED001AB4EE610AF1EEFF
:100DC00010FA04D5F0EE400AB0EE611A03E0B0EE7E
:100DD000401AF0EE610A96ED022AB4EE421AF1EEE4
:100DE00010FA02D5B0EE421A06E0B4EE602AF1EE37
:100DF00010FA01D5F0EE420A31EE800A30EE020A16
:100E0000F0EE081A80EE210AB5EE400AF1EE10FA73
:100E100018D031EE401A70EE601ADFED7F0AF4EE62
:100E2000411AF1EE10FA06D561EE200A80EE800A32
:100E300087ED160A08E061EEA00A80EE800A87EDD1
:100E4000160A01E00020B86596ED030AD6ED040A03
:100E500030EE200AD6ED050A30EE200AF0EE080A40
:100E600080EE200A87ED1A0A96ED000AD6ED010AF7
:100E700030EE200AD6ED020A30EE200AF0EE080A23
:100E800080EE200A87ED1B0A96ED060AD6ED070ACA
:100E900030EE200AD6ED080A30EE200A87ED1C0A53
:100EA00096ED1F0AD7ED020A20EE200AB4EE480A9A
:100EB000F1EE10FA23DBD6ED0E0A80EE800AB4EED6
:100EC000480AF1EE10FA1ADAFFEE000AB4EE600AF0
:100ED000F1EE10FA13D410EE100A00F095FD41EC7B
:100EE000100B01F09AFA53EC102B4FF00050DFF882
:100EF000E41A00F0B7FF00F049FEF86501E00020B9
:100F0000F86596ED200AD7ED030A20EE200AB4EE2C
:100F1000480AF1EE10FA23DBD6ED0F0A80EE800AC4
:100F2000B4EE480AF1EE10FA1ADAFFEE000AB4EE57
:100F3000600AF1EE10FA13D410EE100A00F064FD0E
:100F400041EC100B01F069FA53EC102B4FF00050FC
:100F5000DFF8801A00F086FF00F018FE386601E026
:100F60000020386697ED000AD7ED040A20EE200A2B
:100F7000B4EE480AF1EE10FA2ADBD6ED100A80EE44
:100F8000800AB4EE480AF1EE10FA21DAFFEE000A08
:100F9000B4EE600AF1EE10FA1AD410EE100A00F066
:100FA00033FD41EC100B01F038FA53EC102B4FF0ED
:100FB0000050DFF8201A00F055FF00F0E7FD7866DA
:100FC00008E000BFD80000208C190020010020415B
:100FD000002078669FED130AD6ED1A0AF4EE400A57
:100FE000F1EE10FA01DB0020B065D6ED1B0AF4EE3D
:100FF000400AF1EE10FA01DB0020F065D6ED1C0A84
:10100000F4EE400AF1EE10FA01DB00203066BDEC90
:10101000088BBDE8F08100000000C8427823002062
:10102000A9230020B39D7F3F0000A9405C2300203E
:10103000982000205823002088C32042F8B52DEDC9
:10104000108B9FED101A9FED0F8ADFED0E8A9FED3A
:101050000D9ADFED0C9A9FED0BAADFED0AAA9FED2A
:1010600009BADFED08BA9FED07CADFED06CA9FEDAA
:1010700005DADFED04DA9FED03EADFED02EA4FF077
:10108000000C1AE100000000DFF84C0900EB8C00B6
:10109000D0F8B81B00EE101AD0F8F01A00EE901A33
:1010A00060EEA00A40EE000A30EE811AD0F8481D2A
:1010B00000EE101AD0F8801C00EE901A60EEA00A24
:1010C00040EE000A30EE888AD0F8D81E00EE101AE2
:1010D000D0F8101E00EE901A60EEA00A40EE000A52
:1010E00070EEA88A41F26801421892ED000AD0F829
:1010F000A02F00EE902A60EEA00A40EE000A30EE2B
:10110000899A41F2F812831893ED000A41F23013E4
:10111000C418D4ED000A60EEA00A40EE000A70EE9A
:10112000A99A41F28834051995ED000A4FF49655B5
:101130004619D6ED000A60EEA00A40EE000A30EE35
:101140008AAA41F21856871997ED000A41F25047D2
:1011500000EB070EDEED000A60EEA00A40EE000A8A
:1011600070EEAAAAD0F8F0EA00EE10EAD0F8A0EFEC
:1011700000EE90EA20EE200AD0F8B8EB00EE90EAFC
:1011800000EB010EDEED001A00EEA10A30EE0BBA04
:10119000D0F880EC00EE10EA00EB030EDEED000A62
:1011A00020EE200AD0F848ED00EE90EA00EB020EA7
:1011B000DEED001A00EEA10A70EE2BBAD0F810EEA8
:1011C00000EE10EA00EB050EDEED000A20EE200A2C
:1011D000D0F8D8EE00EE90EA00EB040EDEED001A37
:1011E00000EEA10A30EE0CCAD0F880EC00EE10EA56
:1011F00000EB070EDEED000A20EE200AD0F848EDE5
:1012000000EE90EA00EB060EDEED001A00EEA10AF9
:1012100070EE2EEAD0F8F0EA00EE10EA0144D1EDCB
:10122000000A20EE200AD0F8B81B00EE901AD0F881
:10123000A01F01EE901A00EEE10A70EE2CCAD0F861
:10124000801C00EE101A8118D1ED000A20EE200A51
:10125000D0F8481D00EE901AC118D1ED001A00EE2A
:10126000E10A30EE0DDAD0F8101E00EE101A011966
:10127000D1ED000A20EE200AD0F8D81E00EE901A18
:101280004119D1ED001A00EEE10A70EE2DDAD0F826
:10129000801C00EE101A8119D1ED000A20EE200A00
:1012A000D0F8481D00EE901A3844D0ED001A00EE38
:1012B000E10A30EE0EEA0CF1010CBCF1320FFFF442
:1012C000E3AEDFF8185705F184069FEDD5FB9FEDDF
:1012D000D60A81EE000A10EE100A00F095FB41ECF0
:1012E000100B00F0B5FB53EC102B51EC1F0B00F072
:1012F000B9FD00F04BFCB0609FEDCB0A88EE000A10
:1013000010EE100A00F080FB41EC100B00F0A0FB87
:1013100053EC102B51EC1F0B00F0A4FD00F036FC39
:10132000F0609FEDC10A88EE800A10EE100A00F00E
:101330006BFB41EC100B00F08BFB53EC102B51ECD2
:101340001F0B00F08FFD00F021FC30619FEDB08B92
:101350009FEDB50A89EE000A10EE100A00F054FB6A
:1013600041EC100B00F074FB53EC102B51EC180BFC
:1013700000F078FD00F00AFCE8679FEDAB0A89EE0B
:10138000800A10EE100A00F03FFB41EC100B00F059
:101390005FFB53EC102B51EC180B00F063FD00F0D9
:1013A000F5FBC5F880009FEDA00A8AEE000A10EE5A
:1013B000100A00F029FB41EC100B00F049FB53EC44
:1013C000102B51EC180B00F04DFD00F0DFFB3060EE
:1013D0009FED950A8AEE800A10EE100A00F014FBC9
:1013E00041EC100B00F034FB53EC102B51EC180BBC
:1013F00000F038FD00F0CAFB70609FED870A6BEECD
:10140000000A9FED891AC0EE810AC5ED0E0ADFF8C9
:10141000D005048A9FED811A022C08D16EEE811A44
:101420009FED812AC1EE821AC5ED0F1A07E06BEE1F
:10143000801A9FED7D2AC1EE821AC5ED0F1A6CEE5F
:10144000001AC1EE821AC5ED101A2CEE812ADFEDCA
:10145000762A82EE222A85ED162A2DEE812A82EE48
:10146000222A85ED182A02D17068C5F8800095ED12
:101470000F2A70EE820A70EEA10AC5ED110AD5EDB1
:10148000060AF5EE400AF1EE10FA0FD0D5ED161A65
:101490009FEDB92AF4EE421AF1EE10FA08D59FED4D
:1014A000B72AF4EE421AF1EE10FA01DB0020A8652B
:1014B000002C1FD12DEE010ADFED5B0A80EE200A21
:1014C00085ED170AD5ED070AF5EE400AF1EE10FAA0
:1014D0000DD0DFEDA90AB4EE600AF1EE10FA36D5B0
:1014E000DFEDA60AB4EE600AF1EE10FA2FDB002061
:1014F000E8652CE0022C28D12EEE000A9FED4A1A56
:1015000080EE010A85ED170AF5EE400AF1EE10FAB9
:1015100008D195ED080AB5EE400AF1EE10FA01D1B6
:101520000020E86595ED170ADFED930AB4EE600A36
:10153000F1EE10FA0BD5DFED910AB4EE600AF1EE90
:1015400010FA04DB0020E86501E00020E865012CCA
:1015500001D10020286695ED080AB5EE400AF1EEAB
:1015600010FA0FD095ED180ADFED830AB4EE600A89
:10157000F1EE10FA08D5DFED810AB4EE600AF1EE63
:1015800010FA01DB00202866002C1AD1DFF8540481
:101590000068010705D595ED160AB1EE400A85ED04
:1015A000160AC10605D595ED170AB1EE400A85ED7C
:1015B000170A800605D595ED180AB1EE400A85EDAB
:1015C000180A95ED160AD5ED170A30EE200AD5ED6A
:1015D000180A30EE200A85ED190A96ED02BAD5ED0B
:1015E00000BAB4EE6BBAF1EE10FA1FD52BEEAB0ACF
:1015F0000BEE4B0A10EE100A00F006FA41EC100B4D
:1016000000F026FA51EC100B00F0C0FA30620FE047
:1016100000000040AFD1E13E38A9D43238A9D4B29D
:101620000000002043DE673F000048420020306297
:1016300096ED03CAD5ED01CAB4EE6CCAF1EE10FA0C
:1016400011D52CEEAC0A0CEE4C0A10EE100A00F08C
:10165000DBF941EC100B00F0FBF951EC100B00F042
:1016600095FA706201E00020706296ED04DAD5ED23
:1016700002DAB4EE6DDAF1EE10FA11D52DEEAD0A04
:101680000DEE4D0A10EE100A00F0BEF941EC100B01
:1016900000F0DEF951EC100B00F078FAB06201E0D6
:1016A0000020B06295ED068AD5ED1F8AF4EE488AD7
:1016B000F1EE10FA11D528EE080A08EEE80A10EE4D
:1016C000100A00F0A1F941EC100B00F0C1F951EC47
:1016D000100B00F05BFAF06201E00020F06295ED83
:1016E000079AD5ED209AF4EE499AF1EE10FA11D549
:1016F00029EE090A09EEE90A10EE100A00F084F951
:1017000041EC100B00F0A4F951EC100B00F03EFA84
:10171000306301E00020306395ED08AAD6ED00AA01
:10172000F4EE4AAAF1EE10FA11D52AEE0A0A0AEEF0
:10173000EA0A10EE100A00F067F941EC100B00F015
:1017400087F951EC100B00F021FA706301E00020E2
:1017500070639FEDA50ADFEDA50AF4EE60BAF1EE25
:1017600010FA0DDB96ED081A21EE001A81EE0B1A25
:1017700086ED0E1A06E000BF0BD7233C0AD723BC28
:101780000020B063F4EE60CAF1EE10FA08DB96EDCB
:10179000091A21EE001A81EE0C1A86ED0F1A01E0EB
:1017A0000020F063F4EE60DAF1EE10FA08DBD6ED1B
:1017B0000A0A60EE800AC0EE8D0AC6ED100A01E04A
:1017C00000203064DFED8F0AB4EE608AF1EE10FA8B
:1017D00008DB96ED0B1A21EE001A81EE281A86ED31
:1017E000111A01E000207064002C10D1B4EE609A50
:1017F000F1EE10FA08DB96ED0C1A21EE001A81EEDC
:10180000291A86ED121A04E00020B06401E00020DD
:10181000B064B4EE60AAF1EE10FA08DBD6ED0D0A62
:1018200020EE800A80EE2A0A86ED130A01E00020ED
:10183000F064BDEC108BF1BD4023002038B52DEDD8
:10184000048B664C9FED6A8B6B4DE86800F0DCF80A
:1018500041EC100B00F0FCF853EC102B51EC180B82
:1018600000F000FB00F092F9A061286900F0CCF8CC
:1018700041EC100B00F0ECF853EC102B51EC180B72
:1018800000F0F0FA00F082F9E061686900F0BCF85D
:1018900041EC100B00F0DCF853EC102B51EC180B62
:1018A00000F0E0FA00F072F920629FED549B286886
:1018B00000F0AAF841EC100B00F0CAF853EC102B22
:1018C00051EC190B00F0CEFA00F060F92060286BA3
:1018D00000F09AF841EC100B00F0BAF853EC102B22
:1018E00051EC190B00F0BEFA00F050F9E0606868A6
:1018F00000F08AF841EC100B00F0AAF853EC102B22
:1019000051EC190B00F0AEFA00F040F96060686B22
:1019100000F07AF841EC100B00F09AF853EC102B21
:1019200051EC190B00F09EFA00F030F92061A86824
:1019300000F06AF841EC100B00F08AF853EC102B21
:1019400051EC190B00F08EFA00F020F9A060A86BA2
:1019500000F05AF841EC100B00F07AF853EC102B21
:1019600051EC190B00F07EFA00F010F960611C4890
:10197000008A002810D1E86A00F046F841EC100B0C
:1019800000F066F853EC102B51EC180B00F06AFADB
:1019900000F0FCF8606213E0022811D1E86A00F060
:1019A00033F841EC100B00F053F853EC102B51ECD2
:1019B000180B00F057FA00F0E9F8E06100206062CF
:1019C000BDEC048B31BD000000A493D60030004074
:1019D00049230020DCA54C40440100208C19002044
:1019E000D8000020400100200000C8420100A040B3
:1019F00000000020A782DC3E58210020000000608B
:101A00004018633F0BD7A33CC0F3C75181B1FF29F6
:101A100006D0C110400721F0E04101F1605170474C
:101A200041020CBF40F4E0016FF00041002070471C
:101A300000F0004100020AD0B0FA80FC00FA0CF07D
:101A400001F16051A1EB0C5101EBD0214005704731
:101A500051EC100B00B500F003F841EC100B00BD89
:101A600040F2FF7C0B0D4DD0634566D230B421EAC5
:101A7000035141F4801103F2FD3C5FEA5C0C01D399
:101A800000184941890041EA907180004FF44014E8
:101A90000023E202D50AB1F5100107D46D081DD26A
:101AA000091B641900184941491BF7D56D080AD272
:101AB0000919641B00184941491BEFD56D08F7D37C
:101AC00001E0520817D0C01861419B1AAC410018C0
:101AD0004941801AA941F4D452080AD0C01AA14140
:101AE0009B186C4100184941801AA941E9D4520859
:101AF000F4D15B1C6C4161084FEA330001EB0C51DF
:101B000030BC704750EA0103FBD030B4B1FA81F326
:101B100011B9B0FA80F41B190B3BB3F120042FBFAD
:101B200000FA04F19940C3F1200420FA04F438BF0C
:101B300021439840D3F101039DE7634514BF50EA68
:101B4000410CDEE711F5801FDBD8D943AFF30080ED
:101B5000704730B4002513E050F8042BD30744BF7E
:101B6000A9F101039A18091F042942F8045BFAD26B
:101B700013468C0744BF15809B1CC90748BF1D70C6
:101B800050F8041B0029E7D130BC704701F0004237
:101B90008B1AA3F16051B1F5801F0ADBB1F17F6FA1
:101BA0001FD242EAC102C10071F1004142EB507004
:101BB00070470B15C3F10903212B10D2890241EAAA
:101BC000905180020128494141F0004121FA03F07F
:101BD000C3F12003994071F100415041704710005A
:101BE00070476FF0000013EB103F5CBF000E42EA3D
:101BF000C0507047F0B540F2FF7581EA030C0CF05D
:101C0000004C15EA11541DBF15EA1357AC42AF4200
:101C1000E5E0BC41C1F31301C3F31303801A9941FA
:101C200043F4801304D2641E400049418018594196
:101C3000C90241EA5051B1FBF3F603FB1611A2FBB6
:101C40000675D7EBC020A94102D2761E80185941F3
:101C5000C90241EA5051B1FBF3FE03FB1E11A2FB86
:101C60000E75D7EBC020A94103D2AEF1010E80184A
:101C70005941890241EA9051760546EA8E2EB1FB20
:101C8000F3F603FB1611A2FB0675D7EB8020A941E2
:101C900002D2761E80185941C90241EA50514EEADB
:101CA000060EB1FBF3F603FB1611A2FB0675D7EB8C
:101CB000C020A94102D2761E80185941C90241EACA
:101CC0005051B1FBF3F703FB1711A2FB0735D3EB20
:101CD000C020A94167F100070CBF004247F001078F
:101CE00066F3D5274FEA1E31B80814F5806412DD7B
:101CF000BD0775F1004250EB0E5051EB045111F548
:101D0000801F5CBF41EA0C01F0BD4CF07F6141F0E7
:101D1000E0410020F0BDBD076D0840EA0E5041F4DF
:101D20008011D4F10104B4F120060ADAC4F12006CE
:101D30000200E04001FA06F3E1401843B2401543C7
:101D40000EE0342C13DCC6F1200445EA40056D0892
:101D500020FA06F2154321FA06F0A1400D430021B6
:101D600075F1004250F1000051EB0C01F0BD002074
:101D70005FEA0C01F0BDCFB992185B41B3FA83F76B
:101D800004BFB2FA82F6BF190B3FB7F120062FBF8E
:101D900002FA06F3BB40C7F1200622FA06F638BF66
:101DA0003343BA401CB1E419641E33E77F4231F07B
:101DB0000041B1FA81F404BFB0FA80F6A4190B3CDB
:101DC000B4F120062FBF00FA06F1A140C4F12006AD
:101DD00020FA06F638BF3143A0403C1B1AE7AC425C
:101DE0001ABF05EA1357AF4212E050EA41061CBF82
:101DF00052EA4306BFE750EA4107304661461CBF3E
:101E000041EA0551F0BD52EA430C08BFC143F0BDA1
:101E100000204FF4001616EB410F98BF16EB430F4E
:101E200008BF16EB410F24BFC14305E016EB430F7B
:101E30000CBF61464CEA0551F0BD3100400D491818
:101E400040EA81200CD2490DA1F58061491C40F087
:101E5000004005DBD1F11F0154BFC840C0177047D7
:101E600000207047B0B581EA030C0CF0004C40F242
:101E7000FF7515EA11541DBF15EA1357AC42AF4266
:101E800039E0E41923EA455343F48013C90241F0D1
:101E9000004141EA505EC7021100A7FB0202002880
:101EA0004FF00000EEFB01204FF00001E3FB0721A3
:101EB00018BF42F00102401800214941E3FB0E0126
:101EC000A4F580640F0302D252004041494154F10D
:101ED00001046CDD470872F1004250F1000051EB43
:101EE0000451A1F580115CBF41EA0C01B0BD4CEA80
:101EF00005510020B0BD05EA1357AC4214BFAF42F4
:101F000041E050EA410E1CBF52EA430E02E0614636
:101F10000020B0BD24423C441BD15FEA070EF6D03E
:101F2000090302BF01460020AEF1140EB1FA81F799
:101F3000AEEB070401FA07FE0C37C7F1200100FAE7
:101F400007F7C8404EEA000E23EA455343F48013D6
:101F5000A2E733F00043B3FA83F704BFB2FA82FE7C
:101F600077440B3FE41BB7F1200E2FBF02FA0EF3AC
:101F7000BB40C7F1200E22FA0EFE38BF43EA0E0323
:101F8000BA40641C82E750EA410E14BF52EA430E85
:101F90006FF000014FF4001717EB430F8ABF19468B
:101FA00017EB410FB5E74CEA05510020B0BDD4F165
:101FB0000104B4F120070FDAC4F12007520828BF4A
:101FC00042F0010210FA07F501FA07F7E1BF2A43D0
:101FD000E0403843E1400FE0352C98DCC7F12004A5
:101FE00052EA400220FA07F218BF42F0010231FA29
:101FF00007F0A1400A43002172F1004250F10000B5
:1020000051EB0C01B0BD320070B44FF0004591EAC5
:10201000030F40F1BF806B40841A71EB030604D2BA
:102020006E40001BB141121973414FF4001C1CEBB0
:10203000410F34BF7CEB430683E00C0DA4EB135639
:10204000362E00F37C80012E45EAC32341DC43EAAF
:10205000525312BFD20292025B08240545EAC12105
:1020600041EA5051D2EBC020994125D407D1B0FAB2
:1020700080F610FA06F162D00020203608E0B1FAAE
:1020800081F6B140C6F1200220FA02F21143B040BD
:102090004FEAF474B4EB465434F001064FEA74048A
:1020A0000AD8D6F50016760D04F00044F04061FA27
:1020B00006F25040F1404840C00A40EA415021F049
:1020C000004128BF5FEA500550F1000044EBD121E8
:1020D00035E0DB0A45EAC121C90AB6F120050EDD6B
:1020E00042EA0242120CC5F1200603FA06F6EB4062
:1020F00042EA06056D42984161F100010DE062FA85
:1021000006F5F240554063FA06FC82EA0C02F34001
:102110005A406D42904161EB030111F4801F05D1DB
:10212000641E620502D06D004041494121F48011D6
:10213000430875F1004350F1000041EB045170BCBD
:1021400070471CEB410F15D223F0004352EA4306BF
:102150000BD04FEA4C0CBCEB410F04D80C0D661EA3
:10216000342EB7DDEBE7801A994150EA410608BFEB
:102170000021E4E708BF1CEB430F28BF6FF000010C
:10218000DDE7000070B44FF0004591EA030F7FF5E2
:1021900043AF6B40841A71EB030603D2001BB141BD
:1021A000121973414FF4001C1CEB410F34BF7CEB40
:1021B000430442E00C0DA4EB1356352E4FDC45EAE8
:1021C000C323DB0A45EAC121C912B6F120050DDDA2
:1021D00063FA05F6EB4086EA0305124218BF45F0A4
:1021E0000105C01851F100010CD213E062FA06F5A6
:1021F000F2405540F3415A40B340F3405A408018F2
:10220000594107D349085FEA30005FEA350528BF26
:1022100045F0010501F58011420875F1004250F1C9
:10222000000041EB04514E0016F5001F70BC38BF92
:1022300070470020090D090570471CEB410F10D2B3
:1022400052EA43060BD0BCEB410F05D80C0DAB4353
:10225000661E342EB6DD02E0AB438018594170BCD7
:10226000704770BC704700004FF4001C1CEB410F1E
:1022700094BF1CEB430F09E041EA030C50EA4C0CFD
:1022800052EA0C0C03D2994208BF9042704714BF27
:102290008B4282427047000030B402464FF6FF7016
:1022A000002400E0641C23460D46DBB2AB4215D28D
:1022B0002346DBB232F81330584000231D46EDB2FE
:1022C000082DEFDA0546ADB26D08C007284603D5E4
:1022D00080F4204080F001005B1CEFE780B230BC4E
:1022E0007047000070B54AF6AA20424908600020F5
:1022F000414908704149088000F0C6F8404C04F19B
:102300005C0540480078288000F040F82668404886
:10231000016821F4006101602346A02240214FF4AE
:10232000D85000F0C3FA04F14003A02220214FF45A
:10233000DA5000F0BBFA002004E000210246D2B2DD
:10234000A154401C0146C9B26029F6D39FED2E0B63
:1023500084ED0C0B84ED140B761C26600020A0800D
:102360002F212046FFF798FF68802346A0224021B6
:10237000A08800F09BFA04F14003A0222021A0884D
:10238000403080B2BDE8704000F090BA70B54AF6B7
:10239000AA201849086000201749087017490880CA
:1023A000174C2068401C2060194D2E6846F480664A
:1023B0002E602F212046FFF76FFFA4F85E0026F461
:1023C00000662E602346A02240214FF4E05000F02A
:1023D0006DFA04F14003A02220214FF4E25000F0F6
:1023E00065FA062000F069FA286820F48060286009
:1023F00070BD000000300040A32300207A2300209D
:1024000098200020A2230020F168E388B5F8E43E7C
:102410004001002041EC100B01BD80B551EC100BC8
:1024200000F05CFAF6E780B551EC100B00F0D8FC38
:10243000F0E780B551EC100B00F0D4FCEAE70000A7
:1024400080B500F021F89A4BA022022141F61050ED
:1024500000F066F9974BA02202214FF4E85000F0FB
:102460005FF9954BA02260214FF4D85000F058F945
:102470009248028CD2B2C18BC9B2808BC0B2BDE887
:10248000084000F0FFBD000038B52DED028B8B48F1
:10249000018900EE101AB8EE400A894981ED010A5F
:1024A0008289012A05D1DFED880A20EE200A81ED1C
:1024B000010A4289022A08D191ED010ADFED830A5F
:1024C00080EE200A81ED010A09E0012A07D191ED91
:1024D000010AF2EE040A80EE200A81ED010AC289A7
:1024E00000EE102AF8EE400AC1ED030A91ED010A50
:1024F000C0EE200A734AC2ED000A028801EE102ADB
:10250000B8EE411A81ED001A8288012A05D1DFED6B
:102510006E1A21EE211A81ED001A4288022A08D192
:1025200091ED001ADFED691A81EE211A81ED001A92
:1025300009E0012A07D191ED001AF2EE041A81EEAA
:10254000211A81ED001AC08801EE100AB8EE411A76
:1025500081ED021A91ED008A88EE011A5C4880ED47
:10256000001A60EE810A5B48C0ED000A10EE100A06
:10257000FFF74AFA04460D469FED570BFFF768FA3E
:1025800051EC100B22462B46FFF76CFC04460D461F
:1025900018EE100AFFF738FA22462B46FFF762FCC6
:1025A000FFF7F4FA00EE100A4D48DFED4E0AB4EEE4
:1025B000600AF1EE10FA02DB032101700BE0DFED9F
:1025C0004A0AB4EE600AF1EE10FA02DB0221017051
:1025D00001E001210170007803281CD8DFE800F039
:1025E0000209101645486FF00802404BC0E900236D
:1025F00011E042486FF008023D4BC0E900230AE0B9
:102600003E483C4A3C4BC0E9002304E03B483C4A7E
:10261000414BC0E90023BDEC028B31BD2748008A45
:10262000012808D000203D4A32280DDA3549095CDE
:102630001154401CF8E70020384A03E03249095C95
:102640001154401C3228F9DB0020304902460A7040
:1026500003E0521C0A70401CC0B20A782F4B1B5C6E
:10266000FF2BF6D1501E08707047114908780028DA
:102670001DD1274A1078002801D0401E1070107814
:10268000002814D10A201070224A1078002804D1A2
:10269000002048700120107002E04878401C48700B
:1026A0001E484A78805CFF2801D10020487070479E
:1026B000C80000208423002038200020D8000020FB
:1026C000302300205023002000007A440000C8423C
:1026D0005423002058230020000000000000084080
:1026E000A223002021BCBE4C0150C3477F842E4151
:1026F00064CDCD41F7FFFFA1941A6D424023002025
:10270000F8FF3326309B00083C9C0008AB230020D8
:10271000CC000020AA230020F56B0C43B021002040
:1027200030B4614C256845F001052560626062683F
:1027300022F480626260626842F408326260626819
:102740009204FCD40246120AA262A269D207FCD506
:10275000C0B2A062A069C007FCD5606840F4806088
:10276000606060680A4640EA02406060606840F469
:102770000050606060688004FCD4002007E0A2691B
:102780005207FCD5626A0546ADB25A55401C024656
:102790000D4692B2AA42F2D3606840F48040606075
:1027A000002042F21172A169890604D4401C01463E
:1027B00089B29142F7DB0020A169090404D5401CCD
:1027C000014689B29142F7DB206840084000206052
:1027D00030BC704730B4344C256845F001052560A5
:1027E0006260626822F48062626062680D46AD1CBD
:1027F00042EA05426260626842F4005262606268C6
:102800009204FCD40246120AA262A269D207FCD545
:10281000C0B2A062A069C007FCD500200D4607E049
:10282000024692B29A5CA262A269D207FCD5401C11
:10283000024692B2AA42F3D3606840F480406060DE
:10284000002042F21172A169890604D4401C01469D
:1028500089B29142F7DB0020A169090404D5401C2C
:10286000014689B29142F7DB2068400840002060B1
:1028700030BC70470C4900F100704860086840F0B7
:10288000010008603020C861486840F4005048608A
:1028900048688004FCD48869C006F3D408684008FE
:1028A00040000860704700000058004080B5FFF706
:1028B00091FFA020BDE80240DCE740F259314843D7
:1028C000002809D000BF00BF00BF00BF00BF00BF8D
:1028D00000BF00BF401EF3E770470000D0B541ECD9
:1028E000100B48004015401C2DED048B04D109034A
:1028F00018BF51EC100B48D157EC106B51EC100B7A
:10290000C80F21F00040074647EC186B9FED219B54
:1029100014BF0424022451EC190B53EC182BFFF7BD
:1029200031FC06460F4653EC182B51EC190BFFF700
:102930006BFB32463B46FFF795FAFFF791F841EC07
:10294000190B51EC180B154A154BFFF78DFC38BFCE
:1029500053EC192B0AD301220D4BFFF785FC0ED245
:1029600084F0020451EC190B53EC182BFFF742F9D9
:10297000BDEC048B2246BDE8D04000F05FBCAFF355
:1029800000804FF0FF306FF00041BDEC048BD0BDF4
:102990000000F03F000000000000F03FCE3B7F66EB
:1029A0009EA0E63FF8B52DED068B41EC180B1546C1
:1029B00053EC182BDFF89803DFF89813FFF752FA5F
:1029C00041EC190B21F00041DFF88C23DFF88C3348
:1029D000FFF74AFC6AD253EC192B9FEDB70B03F0BB
:1029E000004251EC100B0C46144353EC102B51ECED
:1029F000190B2346FFF708FB00F008FD040051D037
:102A000000F022FD0022D64BFFF72CFA41EC190B07
:102A100053EC192B4FF0A040D249FFF723FA02469E
:102A20000B4651EC180BFFF7ADFB06460F4653EC77
:102A3000192B4FF0C040CC49FFF714FA02460B4661
:102A400030463946FFF79EFB06460F4653EC192BDE
:102A50004FF00050C549FFF705FA02460B463046D5
:102A60003946FFF78FFB06460F4653EC192B002023
:102A7000BF49FFF7F7F902460B4630463946FFF7E4
:102A800081FB06460F4653EC192B4FF00050B94915
:102A9000FFF7E8F902460B4630463946FFF772FB6E
:102AA00041EC180B04F003046519B7E051EC180B66
:102AB00048004015401C51EC180B0DD14800401542
:102AC000401C02D1090340F03D81BDEC068B4FF064
:102AD000FF306FF00041F4BD31F0004108BF002825
:102AE00005D1002D00F02E819FEDBB8B2AE153EC28
:102AF000192B9FED710B03F0004251EC100B0C46AB
:102B0000144353EC102B51EC190B2346FFF77CFABE
:102B10004B0043EAD0734200002B08BF002A41EC6F
:102B2000190B19D040F23344A4EB5352352A04DB7D
:102B300000F0000001F000410CE0202A03DD203A03
:102B4000D140914000E001D1002003E0002AC4BF41
:102B5000D040904041EC190B51EC190B20F00002D1
:102B600031F0004308BF002A51D053EC192B00204C
:102B70007B49FFF777F941EC1A0B53EC1A2B4FF016
:102B8000A0407849FFF76EF902460B4651EC180B4E
:102B9000FFF7F8FA06460F4653EC1A2B4FF0C040E9
:102BA0007149FFF75FF902460B4630463946FFF799
:102BB000E9FA04460E4653EC1A2B4FF000506B49CD
:102BC000FFF750F902460B4620463146FFF7DAFA86
:102BD00006460F4653EC1A2B00206549FFF742F9D1
:102BE00002460B4630463946FFF7CCFA06460F46FA
:102BF00053EC1A2B4FF000505E49FFF733F90246B1
:102C00000B4630463946FFF7BDFA41EC180B51EC44
:102C1000190B00F0FBFB00F00300451951EC180BF9
:102C200021F0004100224FF07953FFF71DFB05F022
:102C3000010405D2002C00F07D809FED678B79E0C8
:102C400053EC182B51EC180BFFF70CF9002C41EC4E
:102C5000190B35D053EC192B47484849FFF702F9B7
:102C6000474A484BFFF7D0F953EC192BFFF7FAF816
:102C7000454A464BFFF7C8F953EC192BFFF7F2F81A
:102C8000434A444BFFF7C0F953EC192BFFF7EAF81E
:102C9000414A424BFFF7B8F953EC192BFFF7E2F822
:102CA0006FF051023E4BFFF7AFF953EC192BFFF7D2
:102CB000D9F800223B4B39E0000000000000E03F63
:102CC00053EC182BFFF7CEF806460F4653EC192BA2
:102CD00035483649FFF7C6F8354A364BFFF794F9C1
:102CE00053EC192BFFF7BEF8334A344BFFF78CF93E
:102CF00053EC192BFFF7B6F8314A324BFFF784F942
:102D000053EC192BFFF7AEF82F4A304BFFF77CF945
:102D100053EC192BFFF7A6F82D4A2E4BFFF774F949
:102D200032463B46FFF79EF853EC182BFFF76CF941
:102D300041EC180BA80705D551EC180B81F00041A8
:102D400041EC180B51EC180BBDEC068BF4BD0000E8
:102D500083C8C96D305FE43F0000A0FFFFFFDF4183
:102D60000000303EFB21B941B410114026A6513E6F
:102D70005C14D33C9A833B3B09260A1039BA213EA6
:102D80003BA861C6F97D92BE63AC30909F01FA3ECC
:102D9000F6FB51166CC156BFB10255555555A53FAE
:102DA000FFFFDFBF0000F03FB08F2FC310D8E53D1D
:102DB0008F0C73A1E1E55ABE4DADE44FE31DC73E54
:102DC0003EE3B519A0012ABFFAF010111111813F9D
:102DD000425555555555C5BF000000000000F03F55
:102DE0000122DFE50022DDE5010008D4012200F028
:102DF0001F018A40DFF8A413400941F820207047E2
:102E00004FF09040DFF898130160002181804FF06F
:102E100070518160DFF88C13C16000210162416252
:102E2000DFF88413DFF884230A6000228A808A6036
:102E30004FF4A872CA6000220A624A62DFF8701377
:102E4000DFF870230A6000228A804FF4A8028A60AB
:102E50000022CA600A6247F220724A62DFF8581301
:102E600000220A608A808A602022CA6000220A62E8
:102E70004A62D2494FF470220A6000228A808A6036
:102E8000CA600A624A62CE494FF420420A60C022F8
:102E90008A8000228A604FF4A042CA604FF08842C4
:102EA0000A6200224A624FF4805181614FF400614E
:102EB00081617047C348C4490161C4494161C44943
:102EC0008161C16A41F03101C162016841F018417C
:102ED0000160C0498160C049C16000218160C1605A
:102EE0004FF46060BD4908607047BD4807214160EC
:102EF000BC498160BC49C16040F2A151016070478A
:102F0000BA484FF480710160B9498160C160B94924
:102F100001630A21C1624FF4C0018162B649416078
:102F2000704780B5FFF7C6FFFFF76AFFFFF7E8FFBE
:102F300000F036F800F027F800F062F800F048F8EA
:102F4000FFF7D3FFBDE8014077E0AC48C168C9078F
:102F500004D445F25551016002214160C1688907DE
:102F600005D445F25551016040F6FF7181604CF681
:102F7000CC410160A24841F6F73141601C218160DB
:102F80000021016070479F4800210160416081601D
:102F9000C1609D490161016841F001010160704714
:102FA0004FF0804004210180002181800121818136
:102FB000002101828182018381830184018540F6A1
:102FC000A661C162018841F0010101801C200BE76C
:102FD0008E4804210180002181800121818100210E
:102FE000018281820183818301844CF25031018509
:102FF000F021C162018841F0010101801E20F3E649
:103000008348842101800021818010218181002159
:103010000182818243F63D518183002101834FF477
:10302000805101843B2101854FF6FF71C162018807
:1030300041F0010101801D20D6E610B475484FF41F
:10304000824101604021416100210162724A4FF4D6
:10305000804313604FF48074546111626F490B60B8
:103060004C6100230B620123436053604B60836813
:103070001B04FCD490680004FCD488680004FCD4D1
:1030800010BC704710B5664B18245C6104000AD16F
:1030900042F2107098814320624C20804FF47A50A5
:1030A000614C206032E0012C0AD141F288309881D5
:1030B00026205C4C20804FF47A505B4C206025E049
:1030C000022C0AD140F6C41098811620554C20805D
:1030D0004FF41650544C206018E0032C0AD140F2F3
:1030E000E24098810D204F4C20804FF416504E4CFA
:1030F00020600BE0042809D140F27120988109205A
:10310000484C20804FF41650474C20600020474C1C
:10311000206018684008400018600846022803D163
:103120004FF4B050186009E0012803D14FF4A050CB
:10313000186003E0002901D100201860100002D1BE
:103140000020586004E0012A02D14FF4007058605A
:1031500037484FF4004101824FF4805101601868F4
:1031600040F0806040F02C001860586840F4000087
:1031700058608020986000201862186840F00100B4
:1031800018602C482C49816041F29201016027208F
:10319000FFF72AFE0C20BDE8104025E600E100E024
:1031A0005555556910000024000400480F5405F0DF
:1031B00000080048FF55A901000C00480010004815
:1031C000001400480410024001007E0001020007C4
:1031D0000700441001520F07FFCBE6760070004055
:1031E000080002404C2401404C22002004240140ED
:1031F000B66DDB366AB1C61605711E0000300040A0
:10320000042004E000580040895E8010000800405F
:10321000000400400060014000640140006801407B
:10322000004800409E230020101F0020141F002093
:10323000180000481C00024028480040D0B52DED81
:10324000048B41EC180B144653EC182B00206E49EC
:1032500000F00CF908BF9FED578B00F0838051EC14
:10326000180B564A564B00F011F91DD89FED559B8F
:1032700053EC182B51EC190BFEF7F4FD0022534BC5
:10328000FEF7C2FE06460F4653EC182B51EC190B05
:10329000FEF7BAFE02460B4630463946FEF7AAFC58
:1032A00041EC180B44F0010451EC180B21F00041E3
:1032B00001224FF0795300F0E9F853D853EC182B62
:1032C00051EC180BFEF7CEFD41EC190B53EC182B0B
:1032D000FEF7C8FD06460F4653EC192B3C483D4906
:1032E000FEF7C0FD3C4A3D4BFEF78EFE53EC192B1A
:1032F000FEF7B8FD3A4A3B4BFEF786FE32463B46A8
:10330000FEF7B0FD53EC182BFEF77EFE06460F4687
:1033100053EC192B34483549FEF7A4FD344A354B9C
:10332000FEF772FE53EC192BFEF79CFD324A334B2D
:10333000FEF76AFE53EC192BFEF794FD304A314B31
:10334000FEF762FE53EC192BFEF78CFD00222E4B8C
:10335000FEF75AFE02460B4630463946FEF74AFC57
:1033600041EC180BA00705D551EC180B81F000417A
:1033700041EC180B14F007020CD00D4B7B4430339A
:1033800003EBC20251EC180B53681268FEF73CFEC7
:1033900041EC180B200705D551EC180B81F00041CA
:1033A00041EC180B51EC180BBDEC048BD0BD00BFE9
:1033B00008670000182D4454FB21E93F57CD9E5E5D
:1033C0001426D13FAA4C58E87AB6FB3F0000F0BF64
:1033D000845D57134B57B03FB2934C19ED5EE43FF9
:1033E000BEDE02B90240F83FDE39028FC7C0743F2B
:1033F0008AAB1283000CC83F24D7E508B6D8F03F4B
:103400000F34580E5895FD3F0000F03FC1F30A53AA
:1034100040F2FE329B1A14DDD3F120034FEAE17231
:1034200008DDC90241EA505141F00040D8408018FF
:103430005040704703F2E13010B1D24382F00040B7
:103440007047002070470000C11768B14840401A1B
:10345000B0FA80F29040D21CC907C2F5846241EAFA
:10346000025202EBD02140057047000090420CD17F
:1034700041EA030C50EA4C0C07D0994205D14FF4B5
:10348000001C1CEB410F38BF894270474FF4001CF1
:103490001CEB410F94BF1CEB430F09E041EA030C06
:1034A00050EA4C0C52EA0C0C03D28B4208BF824209
:1034B000704714BF99429042704700007047002047
:1034C000DFF8A42B04E0DFF8A41B095C1154401CB6
:1034D0006428F8D3704738B501F0BAF9DFF88C4B9F
:1034E000204601F0C8F9002508E0DFF87C0B50F811
:1034F000251004EB850001F0DBF96D1C192DF4DBC0
:10350000BDE8314001F0B0B9F8B52DED048BDFF81E
:10351000604BDFF8605B28780C2840F0A38094EDC6
:10352000060ADFEDD10AB4EE600AF1EE10FAC0F23D
:1035300097809FEDCE1AB4EE410AF1EE10FA40F1F9
:103540008F8094ED070AB4EE600AF1EE10FAC0F233
:103550008780B4EE410AF1EE10FA40F1818094EDDB
:10356000080AB4EE600AF1EE10FA79DBB4EE410A13
:10357000F1EE10FA74D594ED0A0ADFEDBD0AB4EE4F
:10358000600AF1EE10FA6BD59FEDDF1AB4EE410A36
:10359000F1EE10FA64DB94ED0B0AB4EE600AF1EE82
:1035A00010FA5DD5B4EE410AF1EE10FA58DB94ED55
:1035B0000C0AB4EE600AF1EE10FA51D5B4EE410AED
:1035C000F1EE10FA4CDBFFF779FF72B600BF4AF656
:1035D000AA20DFF8B41A0860FFF771FFDFF8886AE5
:1035E0009FEDC78B9FEDC29ADFF88C7A97ED060AA4
:1035F00030EE090ADFEDBF0A80EE200A10EE100A55
:10360000FEF702FA53EC182BFEF7FEFCFEF7BEFAAB
:10361000706497ED070A30EE090ADFEDB60A80EE16
:10362000200A10EE100AFEF7EFF953EC182BFEF704
:10363000EBFCFEF7ABFA306597ED080A30EE090AAD
:10364000DFEDAC0A80EE200A10EE100AFEF7DCF97E
:1036500053EC182BFEF7D8FCFEF798FAF06501E062
:1036600001F028FF28780A2840F08C8094ED061A93
:103670009FED7D0AB4EE401AF1EE10FAC0F28C8391
:10368000DFED7A0AB4EE601AF1EE10FA40F18483AD
:1036900094ED071AB4EE401AF1EE10FAC0F27C83F2
:1036A000B4EE601AF1EE10FA40F1768394ED081A48
:1036B000B4EE401AF1EE10FAC0F26E83B4EE601A66
:1036C000F1EE10FA40F1688394ED0A1A9FED680A52
:1036D000B4EE401AF1EE10FA40F15E83DFED8A0A93
:1036E000B4EE601AF1EE10FAC0F2568394ED0B1AA4
:1036F000B4EE401AF1EE10FA40F14E83B4EE601AC7
:10370000F1EE10FAC0F2488394ED0C1AB4EE401AB0
:10371000F1EE10FA40F14083B4EE601AF1EE10FAC7
:10372000C0F23A83FFF7CAFE72B600BF4AF6AA207B
:10373000DFF854190860FFF7C2FE9FED6F0ADFF84B
:103740002809DFF83419D0ED080A60EE800A91EDFF
:10375000031AC0EE810AC0ED080AD0ED0B0A60EE34
:10376000800A91ED041AC0EE810AC0ED0B0AD0ED7B
:103770000E0A20EE800AD1ED050A80EE200A80EDC7
:103780000E0A0BE3082840F0C18094ED060ADFED35
:103790007E0AB4EE600AF1EE10FAC0F2FD829FEDEF
:1037A0007B1AB4EE410AF1EE10FA40F1F58294ED85
:1037B000070AB4EE600AF1EE10FAC0F2ED82B4EE40
:1037C000410AF1EE10FA40F1E78294ED080AB4EEF6
:1037D000600AF1EE10FAC0F2DF82B4EE410AF1EEB7
:1037E00010FA40F1D98294ED0A0ADFED690AB4EECD
:1037F000600AF1EE10FA40F1CF829FED661AB4EE46
:10380000410AF1EE10FAC0F2C78294ED0B0AB4EE51
:10381000600AF1EE10FA40F1BF82B4EE410AF1EE17
:1038200010FAC0F2B98294ED0C0AB4EE600AF1EE1F
:1038300010FA40F1B182B4EE410AF1EE10FAC0F292
:10384000AB82FFF73BFE72B600BF4AF6AA20DFF854
:1038500038180860FFF733FE9FED289ADFF8084814
:103860009FED278B06E000BF0CD7A33D90C2F53D2E
:1038700066668641DFF8005895ED060A30EE090AC3
:10388000DFED1A0A80EE200A10EE100AFEF7BCF8EF
:1038900053EC182BFEF7B8FBFEF778F9206495ED92
:1038A000070A30EE090ADFED110A80EE200A10EE59
:1038B000100AFEF7A9F853EC182BFEF7A5FBFEF74C
:1038C00065F9E06495ED080A30EE090ADFED070AB4
:1038D00080EE200A10EE100AFEF796F853EC182B33
:1038E000FEF792FBFEF752F9A06557E200009644FE
:1038F0000000F0C20000F042CDCCCC3E000096C4E7
:10390000FCA9F1D24D6250BF6866E640062840F03F
:10391000958094ED060ADFED1C0AB4EE600AF1EE24
:1039200010FAC0F239829FED191AB4EE410AF1EE95
:1039300010FA40F1318294ED070AB4EE600AF1EE1C
:1039400010FAC0F22982B4EE410AF1EE10FA40F109
:10395000238294ED080AB4EE600AF1EE10FAC0F288
:103960001B82B4EE410AF1EE10FA40F1158294ED9B
:103970000A0ADFED070AB4EE600AF1EE10FA40F130
:103980000B829FED041A07E0CECC4C3F9A99993FE9
:103990000000284301009042B4EE410AF1EE10FA13
:1039A000C0F2FA8194ED0B0AB4EE600AF1EE10FA5F
:1039B00040F1F281B4EE410AF1EE10FAC0F2EC816E
:1039C00094ED0C0AB4EE600AF1EE10FA40F1E481D5
:1039D000B4EE410AF1EE10FAC0F2DE81FFF76EFD9F
:1039E00072B600BF4AF6AA20DFF89C160860FFF7FF
:1039F00066FDB1EE000ADFF87006DFF87C16D0ED48
:103A0000070A60EE800A91ED031AC0EE810AC0ED4C
:103A1000070AD0ED0A0A60EE800A91ED041AC0EEA2
:103A2000810AC0ED0A0AD0ED0D0A20EE800AD1ED20
:103A3000050A80EE200A80ED0D0AAFE1042840F06F
:103A4000D78094ED000ADFEDD30AB4EE600AF1EE00
:103A500010FAC0F2A1819FEDD81AB4EE410AF1EE3E
:103A600010FA40F1998194ED010AB4EE600AF1EE8A
:103A700010FAC0F29181B4EE410AF1EE10FA40F171
:103A80008B8194ED020AB4EE600AF1EE10FAC0F2F6
:103A90008381B4EE410AF1EE10FA40F17D8194ED9C
:103AA000060ADFEDC60AB4EE600AF1EE10FAC0F2C3
:103AB0007381B1EE081AB4EE410AF1EE10FA40F14A
:103AC0006B8194ED070AB4EE600AF1EE10FAC0F2D1
:103AD0006381B4EE410AF1EE10FA40F15D8194ED9C
:103AE000080AB4EE600AF1EE10FAC0F25581B4EEA5
:103AF000410AF1EE10FA40F14F8194ED0A0ADFED30
:103B0000B00AB4EE600AF1EE10FA40F145819FED83
:103B1000D31AB4EE410AF1EE10FAC0F23D8194EDF1
:103B20000B0AB4EE600AF1EE10FA40F13581B4EE02
:103B3000410AF1EE10FAC0F22F8194ED0C0AB4EEB6
:103B4000600AF1EE10FA40F12781B4EE410AF1EE7D
:103B500010FAC0F22181FFF7B1FC72B600BF4AF63D
:103B6000AA20DFF824150860FFF7A9FC9FEDC29A90
:103B7000DFF8F4449FEDC18BDFF8FC5495ED060AA5
:103B800030EE090ADFEDBF0A80EE200A10EE100ABF
:103B9000FDF73AFF53EC182BFEF736FAFDF7F6FF68
:103BA000E06395ED070A30EE090ADFEDB60A80EE14
:103BB000200A10EE100AFDF727FF53EC182BFEF732
:103BC00023FAFDF7E3FFA06495ED080A30EE090A39
:103BD000DFEDAC0A80EE200A10EE100AFDF714FFAC
:103BE00053EC182BFEF710FAFDF7D0FF6065D5E017
:103BF000022840F0D38094ED000ADFED660AB4EEAF
:103C0000600AF1EE10FAC0F2C7809FED6B1AB4EEB5
:103C1000410AF1EE10FA40F1BF8094ED010AB4EED2
:103C2000600AF1EE10FAC0F2B780B4EE410AF1EE8C
:103C300010FA40F1B18094ED020AB4EE600AF1EEA0
:103C400010FAC0F2A980B4EE410AF1EE10FA40F188
:103C5000A38094ED060ADFED590AB4EE600AF1EE96
:103C600010FAC0F29980B1EE081AB4EE410AF1EEF2
:103C700010FA40F1918094ED070AB4EE600AF1EE7B
:103C800010FAC0F28980B4EE410AF1EE10FA40F168
:103C9000838094ED080AB4EE600AF1EE10FA7BDB43
:103CA000B4EE410AF1EE10FA76D594ED0A0ADFED92
:103CB000440AB4EE600AF1EE10FA6DD59FED671A72
:103CC000B4EE410AF1EE10FA66DB94ED0B0AB4EEA5
:103CD000600AF1EE10FA5FD5B4EE410AF1EE10FA87
:103CE0005ADB94ED0C0AB4EE600AF1EE10FA53D5EB
:103CF000B4EE410AF1EE10FA4EDBFFF7DFFB72B6CD
:103D000000BF4AF6AA20E0490860FFF7D8FB9FED04
:103D10005E0AD548D849D0ED000A60EE800A91EDE0
:103D2000001AC0EE810AC0ED000AD0ED010A60EE73
:103D3000800A91ED011AC0EE810AC0ED010AD0EDB2
:103D4000020A20EE800AD1ED020A80EE200A80ED00
:103D5000020AB3EE040AD0ED060A60EE800A91ED85
:103D6000031AC0EE810AC0ED060AD0ED090A60EE22
:103D7000800A91ED041AC0EE810AC0ED090AD0ED67
:103D80000C0A20EE800AD1ED050A80EE200A80EDB3
:103D90000C0A03E00100584301F08CFBBA4C4AF6D0
:103DA000AA252560FFF797FB256002F08EFA62B620
:103DB000BDEC048BF1BD00BF0000844301008040D6
:103DC00000005244AA48AC4991ED000AD0ED000A27
:103DD00030EE200A81ED000A91ED010AD0ED010AD2
:103DE00030EE200A81ED010A91ED020AD0ED020ABF
:103DF00030EE200A81ED020A91ED030AD0ED060AA9
:103E000030EE200A81ED030A91ED040AD0ED070A95
:103E100030EE200A81ED040A91ED050AD0ED080A82
:103E200030EE200A81ED050A91ED060AD0ED0A0A6E
:103E300030EE200A81ED060A91ED070AD0ED0B0A5B
:103E400030EE200A81ED070A91ED080AD0ED0C0A48
:103E500030EE200A81ED080A704700000100B443EB
:103E600085480021016041608160C160016141615C
:103E70008161C161016270470080BBC5FCA9F1D2BC
:103E80004D6250BF0080BB45000070442DE9704377
:103E90002DED0A8B04460D46DFF85469F7EE000A53
:103EA00030EE200A10EE100AFDF7AEFD0022DFF81A
:103EB0004439FDF7D7FF41EC100BFEF7AEFA53EC97
:103EC000102BDFF83409DFF83419FEF79DF8FDF701
:103ED0005DFE70606948306096ED010ADFED670AAB
:103EE00080EE209A86ED029A9FED650BFEF79BFA15
:103EF000B0EE408AF0EE608A9FED610BFEF793FA18
:103F0000B0EE40AAF0EE60AA9FED5D0BFEF78BFAD3
:103F1000B0EE40BAF0EE60BAF0EE009AB7EE00CA2A
:103F200009EE69CAB7EE000A70EE49CA2CEE0C0A17
:103F300010EE100AFDF768FD53EC1A2BFDF792FF07
:103F400053EC1B2BFDF78EFF80468946B1EE000A2D
:103F500029EE000A20EE2C0A10EE100AFDF754FD9F
:103F600042464B46FEF750F841EC100BFDF770FD52
:103F700051EC100B804689461CEE100AFDF744FDFB
:103F800053EC182BFDF76EFF02460B4640464946A0
:103F9000FEF7F8F8804689462CEEA90A10EE100AC2
:103FA000FDF732FD02460B4640464946FDF722FE2C
:103FB000FDF7ECFDF0609FED320BFEF734FAB0EE4A
:103FC000408AF0EE608A9FED2E0BFEF72CFAB0EEE1
:103FD000409AF0EE609A9FED2A0BFEF72AFAB0EEB7
:103FE00040AAF0EE60AA9FED260BFEF722FAB0EE93
:103FF00040BAF0EE60BAF068FDF706FD41EC1C0B2C
:1040000053EC1C2B51EC180BFDF7FEFF8046894644
:1040100053EC1C2B51EC190BFDF7F6FF42464B46B7
:10402000FDF720FF8046894653EC1A2B51EC1B0B01
:10403000FDF718FF42464B46FDF7E6FF41EC100B3B
:10404000FDF706FD53EC102B0020DFF8F417FDF709
:10405000D1FDFDF79BFD30612060F0682860BDEC6C
:104060000A8BBDE870830000181F002000F80008CC
:104070008C190020D0000020D0220020DB0FC93D89
:1040800000000060FB21B93F003000402DE9F84FEF
:104090002DED028B82B0DFF8685705F17006002025
:1040A0003081DFF86007006800F00C01042940F05F
:1040B0009B8220F004000090DFF848170860DFF8CA
:1040C0006C8798F800B085F800B098F80190DFF898
:1040D00058A78AF800900021DFF8684705E018F833
:1040E000010005F10C025054491C20780246931E31
:1040F0009942F4DB08EB0201891E4A78AA7009781C
:10410000697011EB02213180811EC9B205F10C00EA
:1041100000F078FA7080DFF834174F8B3946C9B257
:104120008B4540F05E823188814240F05A82484699
:10413000032803D0102800F0058242E298F802001C
:10414000A87198F80310697111EB0021F18098F8BB
:104150000400287198F80520EA7002EB0028DFF8C7
:10416000B826A2F80080404680B200EBD0735B1006
:10417000B0EB430040F03481404680B2002800F0AC
:104180002F811FFA88F84FEA5808A2F8008000989B
:1041900020F48050DFF86C2610600A4692B2A2F537
:1041A0007A70742811D2084680B200EBD0735B108D
:1041B000B0EB430009D1A1F57A70F08080B24008DD
:1041C000C0F13A01E971287206E1A2F5FA600C2803
:1041D00012D2084680B200EBD0735B10B0EB430004
:1041E0000AD1A1F5FA60F08080B24008C0F1060162
:1041F000E9713A302872EFE0A2F634000E2813D2AB
:10420000084680B200EBD0735B10B0EB43000BD1DB
:1042100040F63400081AF08080B24008C0F107016F
:10422000E97140302872D7E0A2F698000E2813D228
:10423000084680B200EBD0735B10B0EB43000BD1AB
:1042400040F69800081AF08080B24008C0F10701DB
:10425000E97147302872BFE0A2F6FC001C2813D297
:10426000084680B200EBD0735B10B0EB43000BD17B
:1042700040F6FC00081AF08080B24008C0F10E0140
:10428000E9714E302872A7E0A2F516601C2812D200
:10429000084680B200EBD0735B10B0EB43000AD14C
:1042A000A1F51660F08080B24008C0F10E01E971FE
:1042B0005C30287290E0A2F6C410122813D208468F
:1042C00080B200EBD0735B10B0EB43000BD140F633
:1042D000C410081AF08080B24008C0F10901E971E9
:1042E0006A30287278E0A2F62820162813D20846F1
:1042F00080B200EBD0735B10B0EB43000BD140F603
:104300002820081AF08080B24008C0F10B01E97142
:104310007330287260E0A2F68C20162813D208466B
:1043200080B200EBD0735B10B0EB43000BD140F6D2
:104330008C20081AF08080B24008C0F10B01E971AE
:104340007E30287248E0A2F52F60162812D2084667
:1043500080B200EBD0735B10B0EB43000AD1A1F543
:104360002F60F08080B24008C0F10B01E97177380E
:10437000287231E0A2F6B830242813D2084680B261
:1043800000EBD0735B10B0EB43000BD140F6B830BC
:10439000081AF08080B24008C0F11201E9716C384F
:1043A000287219E0DFF874048218262A80F0F5805C
:1043B000084680B200EBD0725210B0EB420040F0E1
:1043C000EC8041F28830081AF08080B24008C0F1D9
:1043D0001301E9715A382872E8794146884213D2AC
:1043E00083208AF800000320DFF83414887001224B
:1043F00083213846C0B200F029F99AF8000000F095
:104400007F008AF80000ECE04FF0000918E000207F
:10441000D07010715071907109E010719DF8010019
:10442000D0709DF8020090719DF803005071B08823
:10443000001DB080091DA97209F101095FFA89F90F
:104440004046814570DA287A484400EB40018800F4
:10445000DFF8B4130A1D125A6A7201EB000A9AF8C7
:104460000800022804D1DFF8A40390ED008A0FE0D1
:10447000032804D1DFF8980390ED008A08E00428AF
:1044800004D1DFF8900390ED008A01E0B7EE008AD6
:10449000687A02280AD1DAF800000088BDEEC80A5E
:1044A00010EE101A89B24843009024E0042809D184
:1044B000DAF800000068BCEEC80A10EE101A484393
:1044C000009018E05B2808D1DAF8000090ED000AAF
:1044D00020EE080A8DED000A0DE05A280BD1DAF81B
:1044E0000000D0E90001FDF751FB00EE100A20EEBC
:1044F000080A8DED000AA97AC9480A460244BAF8AA
:104500000600002883D0D148408C00289DF8000088
:1045100083D190719DF8010050719DF802001071D7
:104520009DF80300D07082E7B288BD488270521CAB
:10453000D2B203213846C0B200F088F80020A87239
:10454000B0804EE098F80200A87198F803106971E5
:1045500011EB0022F28098F80400287198F80510F9
:10456000E97011EB0021AC48018013469BB2AB48C7
:10457000C318262B11D8104680B200EBD0735B1005
:10458000B0EB430009D141F28830101AF08089B2B3
:1045900080B2400800F084F823E049F080094946E1
:1045A0008AF8001002209E4A907001223846C0B25C
:1045B00000F04CF89AF8000000F07F008AF8000044
:1045C0000FE0B9F1030F0CD049F0800949468AF891
:1045D00000100120924A907002463846C0B200F0A6
:1045E00035F80020207008E00C2906D120F00C00DE
:1045F0008449086000209349087002B0BDEC028B2A
:10460000BDE8F18F30B402464FF6FF70002400E0A1
:10461000641C23460D46DBB2AB4214D22346DBB208
:10462000D35C584008231D46EDB2002DF0D005465E
:10463000ADB26D08C007284603D580F4204080F055
:1046400001005B1EEFE780B230BC704738B51546FD
:10465000734C20706170A91CC9B22046FFF7D2FFCD
:10466000611988700012C8706E484FF48051018241
:104670004FF4004101600420FEF71FF97248016801
:10468000490849000160C4602D1D4560016841F082
:104690000A010160016841F00101016031BD0000C3
:1046A0002DE9F8432DED028B0024224606E0674BEE
:1046B00033F812302D1D25F81230521C5A4D132A92
:1046C000F5D322462E1D0CE0584B03EB820317183E
:1046D00093F80AC05B7A0CEB032326F81730521CC0
:1046E00092B20B46B2EB530FEEDB2646A88900EEE2
:1046F000100AB8EE400A288A012803D1F2EE040A13
:1047000020EE200AA88800EE900AB8EE608A288978
:10471000012803D1F2EE040A28EE208A10EE100AD6
:10472000FDF772F9804689469FED410BFDF790F940
:1047300053EC102B40464946FDF794FB80468946D2
:1047400018EE100AFDF760F942464B46FDF78AFB6A
:10475000FDF71CFA00EE100A18E0C07C002814D106
:10476000012412E0281D30F81610334806EB4602EB
:1047700000EBC2004FF6FF729142EED08289914267
:1047800002D3C089884200D20124761C132EE9D3BB
:10479000DFED2A0AB4EE600AF1EE10FA00DB012424
:1047A000002C07D003201E498870287840F0800034
:1047B000287012E00020254A05E0291D31F810106C
:1047C00022F81010401C1328F7D302F0D9F8052066
:1047D000134988701420FEF770F8012229781B48CD
:1047E000408BC0B2BDEC028BBDE8F8432EE7000061
:1047F0000C2300200000E03FA138DB3752C1F0BF9E
:10480000000000203C010020A48A00085023002062
:1048100054230020582300209823002078ECFFFF29
:10482000CC1A0020180000487C2200207C1F0020A9
:1048300000000000000008404495000821BCBE4C68
:104840000000F03FA82300201C000240D8000020F8
:10485000DFF8D800C168090605D5DFF8D41001607B
:10486000DFF8D01001607047DFF8CC00016841F03C
:1048700080010160704738B504464FF4302000F0E5
:104880005FF80146042912D1DFF8AC50286840F0E7
:10489000020028606C60286840F0400028604FF4F7
:1048A000302000F04DF8296821F00201296032BD66
:1048B0007CB504460D46002000904FF4302000F0F7
:1048C0003FF8014604291FD1DFF86C60306840F0E2
:1048D0000100306025804FF4302000F031F80146AF
:1048E00004290DD1A41C00942D0C009805804FF4D0
:1048F000302000F025F8316849084900316076BD64
:10490000316849084900316076BD04200B490A68C6
:10491000D20701D5012070470A68D20601D50220CE
:1049200070470968490700D50320704704200240FA
:1049300023016745AB89EFCD102002400C200240D7
:1049400010B50446FFF7E1FF02E0FFF7DEFF641E4B
:104950000146012901D1002CF7D1002C00D10520FE
:1049600010BD00007CB500200246DFF8783B02E075
:1049700023F81120401C0146C9B21029F8DB144667
:10498000DFF8C40ADFF8C41A4978455C12E07068A1
:1049900090ED000AF2EE040A20EE200ABCEEC00AF6
:1049A0008DED000AB37A0022317A032000F03BF942
:1049B000641CE4B2DFF8C40A05EB450100EB01100A
:1049C00010EB04163078FF2800F00A81002803D08D
:1049D000012800F0FD80EDE7707A01460A290CDC21
:1049E000716891ED000ABCEEC00A8DED000AB37A41
:1049F0000022317A00F017F9DAE70B381628D7D8F9
:104A0000DFE800F01D0E3535353E48525C66708992
:104A1000939DA7B1BB2C0D7EC9D40D00C8E7B6E7A6
:104A2000284601462046726892ED000ADFF8B82A4F
:104A3000D2ED000A20EE200A00F090F9B8E72846EF
:104A400001462046726892ED000ADFF8A02AD2EDF6
:104A5000000A20EE200A00F081F9A9E72846014665
:104A60002046726892ED000A00F010FAA0E728468E
:104A700001462046726892ED000A00F0A1F997E71E
:104A80002846024620460146DFF8640A806800F0A6
:104A900029FA8DE72846024620460146DFF8500AEB
:104AA000006900F01FFA83E7284601462046DFF838
:104AB000402A92ED060B00F045FA79E728460146B8
:104AC0002046DFF82C2A92ED080B00F03BFA6FE746
:104AD000284601462046DFF8182A92ED0A0B00F01E
:104AE00031FA65E7284601462046DFF8042AD2E974
:104AF0000C2383F0004343EC102B00F023FA57E71C
:104B00002846024620460146DFF8E409B0F858007E
:104B100000F003FA4CE72846024620460146DFF83B
:104B2000D409806800F0DEF942E7284602462046B4
:104B30000146DFF8C009006900F0D4F938E72846DB
:104B400001462046DFF8AC2992ED060B00F09AFAF8
:104B50002EE7284601462046DFF8982992ED080BFB
:104B600000F090FA24E7284601462046DFF8842921
:104B700092ED0A0B00F086FA1AE728460146204615
:104B8000DFF87029D2E90C2383F0004343EC102BAB
:104B900000F078FA0CE72846024620460146DFF886
:104BA0005409B0F8580000F0B8F901E7706890EDCA
:104BB000000ADFEDB50A20EE200ABCEEC00A8DED3A
:104BC000000AB37A0022317A042000F02CF8EFE6D4
:104BD000F268B17A002000F0C9FA641CE4B2E9E698
:104BE0000120DFF8041B088073BD10B4002804D531
:104BF00040422D21DFF8742A917200220A210EE032
:104C0000C01A521CDFF8683A53F821309842F7D2A4
:104C1000DFF8D83A4C421A550022491EC9B2002981
:104C2000F0D110BC7047F8B504460D461E460698F4
:104C3000FFF7DBFFDFF8AC1801F11400324600EBA0
:104C40004202002309E00FF2840C3CF8177038434D
:104C50001080921C761C5B1C9BB22846834218DA9B
:104C6000DFF8080A5F4200EB070C9CF80970108817
:104C7000B6465FFA8EFEBEF1040FE4D10FF648335C
:104C8000DD5D284310809CF808505B5D40EA0320FE
:104C90001080200019D0062817DA2246052A04D1F0
:104CA000888B40F480708883F1BD042C04D1888BFC
:104CB00040F001008883F1BD01F1140232F81020A8
:104CC00042F48072143121F81020F1BD00FC006024
:104CD00080DA80F2806680B680BE00E080FE80F6DA
:104CE000DFF8982701EB410302EB0311C0B201EB9F
:104CF0000010807ADFF8F819DFED8C0AB4EE600A54
:104D0000F1EE10FA02DB0020087021E0DFED880AE6
:104D1000B4EE600AF1EE10FA06DBF2EE040A20EEC1
:104D2000200A401C087013E0DFED820AB4EE600A2E
:104D3000F1EE10FA06DBDFED540A20EE200A801CAB
:104D4000087005E0DFED7C0A20EE200AC01C087028
:104D5000BCEEC00A10EE100A704700007CB5054694
:104D60000E46DFF8904900202070DFED730AB4EEA4
:104D7000600AF1EE10FA03DB80EE200A4B2020706F
:104D80002846C0B2FFF7ACFFDFF8F01606EB46028C
:104D900001EB0211EDB201EB051100908B7A0022BC
:104DA000097ADFF84C090078FFF73DFF20784B289F
:104DB00005D1DFF83007418B41F00101418373BD1C
:104DC0007CB505460E460024DFF82C09D0ED000A1C
:104DD00020EE200AB5EE400AF1EE10FA02D5B1EE4F
:104DE000400A0124DFED550AB4EE600AF1EE10FA34
:104DF00004DB80EE200A44F0060416E0DFED500AE2
:104E0000B4EE600AF1EE10FA04DB80EE200A44F002
:104E100004040AE0DFED480AB4EE600AF1EE10FA8D
:104E200003DB80EE200A44F002042846C0B2FFF7FC
:104E300057FFDFF8481606EB460201EB0211EDB210
:104E400001EB051100908B7A0022097ADFF8A008A7
:104E50000078FFF7E8FEE00705D5DFF88806018B4C
:104E600041F001010183A00705D5DFF87806418BE9
:104E700041F001014183600705D5DFF86806C18A6A
:104E800041F00101C18273BD0000C8421CB500247D
:104E9000DFF8E82501EB410302EB0311C0B201EB9F
:104EA00000118B7A1846B5EE400AF1EE10FA02D5E1
:104EB000B1EE400A0124DFED200A20EE200ABCEE0C
:104EC000C00A8DED000A0022097AC01CC0B2FFF7AB
:104ED000AAFE002C05D0DFF80C06018B41F0010181
:104EE000018313BD1CB53C21B0FBF1F40846B4FBB3
:104EF000F0F0C0EB0011A4EB8104009000231A46EF
:104F000006211046FFF78FFE00E00A3C0A2CFCD277
:104F1000DFF8D005017A018113BD80B50090002330
:104F20001A4606211046FFF77EFE01BD01007A44B5
:104F30000100C8420100204100007A44286B6E4EF7
:104F40000024744910B52DED028B82B0B0EE408A7A
:104F5000F0EE608A002451EC180B22461346FDF750
:104F600083F909D253EC182B2046DFF89017FCF791
:104F700079FF41EC180B0124DFF88407008B01282E
:104F80002DD1DFF88007007803284ED8DFE800F045
:104F9000020C0F1B53EC182B0020DFF86C17FCF7EA
:104FA00061FF41EC180B40E044F002043DE044F0A6
:104FB000040451EC180B0022DFF84C37FCF71AFE02
:104FC00041EC180B31E044F0060451EC180B0022C0
:104FD000DFF83837FCF70EFE41EC180B25E051ECFA
:104FE000180BDFF82C27DFF82C37FEF74FFA08D81C
:104FF0000022DFF81837FCF7FDFD41EC180B44F0F8
:10500000060451EC180B0122DFF80C37FEF73EFACC
:1050100009D80022DFF8F036FCF7ECFD41EC180B64
:1050200044F0040401E044F0020451EC180B0022A7
:10503000DFF8D436FCF7DEFDFCF700FF009000231C
:105040001A4606211046FFF7EEFDE00705D5DFF80A
:105050009404018B41F001010183A00705D5DFF81D
:105060008404418B41F001014183600705D5DFF8DD
:105070007404C18A41F00101C18202B0BDEC028B0F
:1050800010BD000010B52DED028B82B0B0EE408A4D
:10509000F0EE608A002451EC180B22461346FDF70F
:1050A000E3F809D253EC182B2046DFF85016FCF732
:1050B000D9FE41EC180B0124DFF83804B0F85C008D
:1050C000032827D8DFE800F0020C0F1B53EC182B45
:1050D0000020DFF83416FCF7C5FE41EC180B19E090
:1050E00044F0020416E044F0040451EC180B0022D2
:1050F000DFF81436FCF77EFD41EC180B0AE044F0B3
:10510000060451EC180B0022DFF80036FCF772FDA4
:1051100041EC180B51EC180B0022DFF8EC35FCF7D2
:1051200069FDFCF78BFE009000231A46062110460D
:10513000FFF779FDE00705D5DFF8A803018B41F003
:1051400001010183A00705D5DFF89803418B41F0E9
:1051500001014183600705D5DFF88803C18A41F06A
:105160000101C18202B0BDEC028B10BD10B400235E
:10517000DFF8700300EB410000F1140100E05B1C5C
:105180001C46A4B2105D0028F9D1052C24DB107850
:10519000202806D00B880FF2FB54205C43EA002342
:1051A0000B805078202805D00B880FF2E754205C44
:1051B00003430B80891E921C0EE0DFF8604504EB70
:1051C000400030F8600C03430B8003E00B8820287C
:1051D000F3D10B80891E521C10780028F6D110BC28
:1051E000704770B5DFF83805DFF8381509880429ED
:1051F00003D10178491C017001E0002101700178A0
:1052000002293CD10021017008460246B54B02E05C
:1052100023F81120401C0146C9B21029F8DBDFF841
:10522000084505202070894D2878002808D10120E4
:1052300028700FF2505204210020FFF797FF06E07C
:10524000104628700FF234520421FFF78FFFDFF869
:10525000DC64306840F48060306000BF2B46A022E0
:10526000022141F61050FDF721FB306820F48060E8
:1052700030600120DFF8701408800A20207070BDB3
:1052800080B500200246974B02E023F81120401C15
:105290000146C9B21029F8DB0FF2F04204210020C8
:1052A000FFF764FF0120DFF84014088001BD80B5DE
:1052B000002002468B4B02E023F81120401C0146DF
:1052C000C9B21029F8DB0FF2844204210020FFF755
:1052D0004DFF0120DFF8101408800A20DFF8481481
:1052E000087001BD80B5002002467E4B02E023F825
:1052F0001120401C0146C9B21029F8DB0FF294427C
:1053000004210020FFF732FF0120DFF8DC130880C2
:1053100001BD80B500200246724B02E023F8112047
:10532000401C0146C9B21029F8DB0FF228420421C3
:105330000020FFF71BFF0120DFF8AC1308800A20D4
:10534000DFF8E413087001BD80B500200246654B0C
:1053500002E023F81120401C0146C9B21029F8DBF5
:105360000FF2384204210020FFF700FF0120DFF890
:105370007813088001BD80B500200246594B02E039
:1053800023F81120401C0146C9B21029F8DB0FF2A6
:10539000CC3204210020FFF7E9FE0120DFF848139A
:1053A00008800A20DFF88013087001BD80B5002056
:1053B00002464C4B02E023F81120401C0146C9B2C2
:1053C0001029F8DB0FF29C3204210020FFF7CEFEFB
:1053D0000120DFF8141308800A20DFF84C1308704E
:1053E00001BD80B5002002463E4B02E023F81120AB
:1053F000401C0146C9B21029F8DB0FF270320421BB
:105400000020FFF7B3FE0120B74908800A20DFF82B
:105410001813087001BD80B500200246314B02E030
:1054200023F81120401C0146C9B21029F8DB0FF205
:10543000443204210020FFF799FE0120AA49088088
:105440000A20B949087001BDB0210020C800002021
:1054500080B500200246234B02E023F81120401CB7
:105460000146C9B21029F8DB0FF2403203210020B7
:10547000FFF77CFE01209C49088001BD347F0008B5
:105480001CB500200246174C02E024F81120401CF5
:105490000146C9B21029F8DB6420009013460321AD
:1054A0000220FFF7C0FB40F61840608301208E49C0
:1054B000088013BD80B5002002460A4B02E023F8A5
:1054C0001120401C0146C9B21029F8DB0FF2D4228A
:1054D00004210020FFF74AFE4AF6AA2094490860FA
:1054E000FDE700001C220020502300205423002050
:1054F000982000203820002070B47B490A88012AB7
:1055000013D100221000020092B2182A0BDA614A6D
:1055100003009BB232F81320864B0400A4B223F898
:105520001420401CEFE700220A8082490A8E521C98
:105530000A860A8E052A01D100220A860A8BB2F554
:105540007C4F05D14A8BB2F57C4F01D1022210006D
:105550000A8E31F812309BB2DB430022100080B279
:10556000102812DAD80703D50120734C206002E01E
:105570000120724C20800220704C20809BB25B087E
:1055800002206D4C2060521CE8E7088E01EB4000C1
:105590004489A4B2E4430020020092B2102A12DA35
:1055A000E20703D50122644B1A6002E00122634B3B
:1055B0001A800222614B1A80A4B2640802225E4B58
:1055C0001A60401CE8E70A8E01EB4202938A9BB204
:1055D000DB430022100080B2102812DAD80703D56E
:1055E0000120554C206002E00120544C2080022014
:1055F000524C20809BB25B0802204F4C2060521C12
:10560000E8E74F484FF4807404608025056040252A
:1056100005602025056010250560484D082028807C
:105620000820454E3060088E002802D1454804808D
:1056300017E0088E012803D180204249088010E03D
:10564000088E022803D140203E49088009E0088ED8
:10565000032803D120203B49088002E0102039496B
:1056600008800420288070BC7047000020230020A0
:105670005C9B000800200246064B02E023F8112044
:10568000401C0146C9B21029F8DB04202A490860F1
:10569000704700001C22002080B5002002462A4BE3
:1056A00002E023F81120401C0146C9B21029F8DBA2
:1056B0001E480078000704D53DA202210020FFF714
:1056C00055FD00BF3CA201210020FFF74FFD00BFA8
:1056D0003BA200210846FFF749FD0120024908804E
:1056E0000A201149087001BDA62300202A230020AA
:1056F000A02300202C1E0020582300200000F0BF13
:10570000D8000020A223002000408F4080842E413A
:10571000010000A2941A6D4265CDCD41209A000887
:10572000A423002006010020CC000020400100201E
:1057300000300040E4210020180000482800004804
:1057400018080048280800481C2200204320485020
:105750004600000043204D504600000043204C50BE
:1057600046000000432048564900000043204D56A3
:105770004900000043204C56490000005343524F5B
:105780004E0000005343524F4646000053204850FD
:105790004600000053204D504600000053204C505E
:1057A0004600000043484B20494E00005245580037
:1057B00043542052000000004354205900000000D0
:1057C0004354204200000000FC60DAF266B6BEE0FE
:1057D000FEF60000EE3E9C7A9E8EEE6E60F0001C9F
:1057E000002AFCCEE60AB61E7C000000760000000F
:1057F000BFF34F8FDFF8581B0A6802F4E062DFF84E
:10580000540B02430A60BFF34F8F00BFFDE7000057
:10581000F8B52DED068BDFF8402BDFF8404BDFF8B5
:10582000401BC88840F6980398421EDA206840055D
:1058300018D410780346042B01DC401C107010783B
:1058400004281EDDDFF81C0B0078042819DD042075
:10585000DFF8141B4860FCF799FDBDEC068BBDE832
:10586000F140C5E7002010700BE01078002801D04F
:10587000401E10701078002803D1206840F40060AA
:105880002060DFF8E85ADFF8E82AB1F90030B1F912
:105890000C00C318A3F5805000B200EE100AB8EE59
:1058A000C00AD2ED000A30EE600AD5ED000A20EE03
:1058B000200AB1F90230B1F90A00C318A3F58050EB
:1058C00000B200EE900AF8EEE00A92ED011A70EED6
:1058D000C10A95ED011A60EE810AB1F90430B1F9FF
:1058E0000800C318A3F5805000B201EE100AB8EE0C
:1058F000C11AD2ED021A31EE611AD5ED021A21EE6B
:10590000211ADFF8701AC86D00B201EE900AF8EEA5
:10591000E11A95ED032A61EE821A92ED032A71EEE7
:10592000C23ADFF8540A006800B201EE900AF8EEBD
:10593000E11A95ED042A61EE821A92ED042A31EE05
:10594000C24ADFF8380A006800B201EE900AF8EEA9
:10595000E11A95ED052A61EE821A92ED052A71EEA3
:10596000C24ADFF81C0A026842F48002026008683A
:1059700040F400400860DFF80C1A91ED035AD1EDB5
:10598000015ADFEDCD1A9FEDCD2ADFEDCD2A9FED37
:10599000CD3A91ED026A36EE236A26EE038A05EED1
:1059A000A28A05EE028A91ED046A06EE618A81ED13
:1059B000045A81ED048AC1ED025AC1ED013AD1EDDC
:1059C000073A91ED055AD1ED065A75EE845A65EE07
:1059D000838A45EE228A43EE828AD1ED085A45EE4B
:1059E000E18AC1ED083AC1ED088A81ED065A81EDE0
:1059F000054AD1ED0B3A91ED094A91ED0A5A35EE7F
:105A0000245A25EE039A04EE229A03EE829A91ED2F
:105A10000C5A05EE619AC1ED0C3A81ED0C9A81EDBC
:105A20000A4AC1ED094AD1ED0F3A91ED0D4AD1ED87
:105A30000E4A74EE804A64EE839A44EE229A43EE54
:105A4000829AD1ED104A44EEE19AC1ED103AC1EDCF
:105A5000109A81ED0E4A81ED0D0A91ED130AD1EDF8
:105A6000113A91ED124A34EE204A24EE03AA03EED5
:105A7000A2AA00EE02AA91ED144A04EE61AA81EDF9
:105A8000140A81ED14AAC1ED123AC1ED110A91ED8B
:105A9000170AD1ED150AD1ED163A73EE813A63EE8D
:105AA00083AA40EEA2AA40EE02AA91ED182A42EE85
:105AB00061AA81ED180AC1ED18AAC1ED160A81ED9F
:105AC000151A0888401C0880DFF8BC68308840F64A
:105AD0007F4290420CD1DFF8B4084288DFF8B0383A
